:020000040800F2
:1000000058620020C52D0008E1040008E304000840
:10001000E5040008E7040008E90400080000000007
:10002000000000000000000000000000EB040008D9
:10003000ED0400080000000073AD0008C949000885
:10004000DF2D0008DF2D0008DF2D0008DF2D000860
:10005000DF2D0008DF2D0008DF2D0008DF2D000850
:10006000DF2D0008DF2D0008DF2D0008DF2D000840
:10007000DF2D0008DF2D0008DF2D0008DF2D000830
:10008000DF2D0008DF2D0008DF2D0008DF2D000820
:100090002F1E0008DF2D0008DF2D0008DF2D0008CF
:1000A000DF2D0008DF2D0008DF2D0008DF2D000800
:1000B000DF2D0008DF2D0008DF2D0008DF2D0008F0
:1000C000DF2D0008DF2D0008DF2D0008DF2D0008E0
:1000D000DF2D00086D4B0008DF2D0008DF2D000824
:1000E000DF2D0008DF2D0008DF2D0008DF2D0008C0
:1000F000DF2D0008DF2D0008DF2D0008DF2D0008B0
:10010000DF2D0008DF2D0008DF2D0008DF2D00089F
:10011000DF2D0008DF2D0008DF2D0008DD1E0008A0
:10012000DF2D0008DF2D0008DF2D0008DF2D00087F
:10013000DF2D0008DF2D0008DF2D0008DF2D00086F
:100140002D0A0008DF2D0008DF2D0008DF2D000834
:10015000DF2D0008DF2D0008DF2D0008DF2D00084F
:10016000DF2D0008DF2D0008DF2D0008DF2D00083F
:10017000DF2D0008DF2D0008DF2D0008DF2D00082F
:10018000DF2D0008DF2D000800F002F800F05CF819
:100190000AA090E8000C82448344AAF10107DA45E2
:1001A00001D100F051F8AFF2090EBAE80F0013F0D8
:1001B000010F18BFFB1A43F001031847DCC300000E
:1001C000FCC300000A444FF0000C10F8013B13F090
:1001D000070408BF10F8014B1D1108BF10F8015BA0
:1001E000641E05D010F8016B641E01F8016BF9D193
:1001F00013F0080F1EBF10F8014BAD1C0C1B09D1EA
:100200006D1E58BF01F801CBFAD505E014F8016B5B
:1002100001F8016B6D1EF9D59142D6D370470000ED
:100220000023002400250026103A28BF78C1FBD8FF
:10023000520728BF30C148BF0B6070471FB50BF095
:10024000EAFF1FBD10B510BD0AF04AFD1146FFF7C9
:10025000F5FF00F067F80AF068FD03B4FFF7F2FF5E
:1002600003BC04F025FC00002DE9F0438BB004F042
:10027000F6FC04F0C9FD784D2978491C297004F07A
:10028000C7FD00240327CDE9064709AE4FF00C094E
:10029000724A089605940A208DE805024FF08008FE
:1002A000CDE9038423466E4A6EA1724808F00CFE25
:1002B000CDE90647704A089605940D208DE80502A1
:1002C0006C48CDE9038400236C4A6DA1C43008F06A
:1002D000FBFDCDE906476D4A089605940F208DE891
:1002E0000502CDE903840023694A6AA16C4808F03D
:1002F000EBFD04F089FD2978491E11F0FF012970FA
:1003000007D16849098821B104F082FD06F062FA3C
:1003100001E004F07DFD09A9002008F0B6FE0BB055
:10032000BDE8F08330B5A8202DED068B8BB004F02E
:1003300059FB4FF4A06002F065FD4FF4E13004F08A
:10034000BFFB00220121584800F064FE642004F045
:1003500089FB00F0CFFA01F0ADFE02F0C5F8DFED49
:10036000538AB0EE683A9FED529AF0EE492ADFEDDB
:10037000519AB0EE692A9FED50AAF0EE4A1A9FED0D
:100380004F8AB0EE481AF0EE480ADFED4DAA4D480C
:10039000B0EE6A0A02F0CAF8B0EE683AF0EE492A06
:1003A000B0EE692AF0EE4A1AB0EE481AF0EE480AAA
:1003B000B0EE6A0A444802F0B9F8B0EE683AF0EEDE
:1003C000492AB0EE692AF0EE4A1AB1EE081AF0EEA8
:1003D000480A9FED3E0A3E4802F0A8F809A805F039
:1003E00019FD04F011FD1C4C2178491C217004F00A
:1003F0000FFD002006AB09AA0321059083E8070042
:1004000080220C23CDE90232254D0490C4350346E9
:10041000AFF2AB12CDE900152EA1A5F5447008F09E
:1004200053FD04F0F1FC2178491E11F0FF01217009
:1004300007D11C49098821B104F0EAFC06F0CAF989
:1004400001E004F0E5FC09A805F00BFF0BB000206B
:10045000BDEC068B30BD000030040020A409002054
:100460006D060008436F6E74726F6C5F7461736B1E
:100470000000000058050020A40B0020FD06000825
:100480004C6F6F705F7461736B000000A40D0020EF
:100490008107000843617463685F7461736B0000D7
:1004A000E0060020F403002000640040002474C92A
:1004B000002474490024F4C80024F448000000001B
:1004C00000009643383A0020683A00200000FA43C2
:1004D000983A002053746172745F7461736B00000A
:1004E0007047FEE7FEE7FEE7FEE770477047000053
:1004F0000CB500205449019000900A6842F4803203
:100500000A604FF4A0430A6802F400320092019A94
:10051000521C0192009A12B9019A9A42F3D10A68C8
:10052000920334D50120009047484030026842F0E1
:10053000805202604548026842F4404202604248EC
:10054000083002680260026842F4004202600268F9
:1005500042F4A0520260031F3D4A1A600A6842F04A
:1005600080720A600A689201FCD53A4A40F205712D
:100570001160016821F003010160016841F002018E
:1005800001600168C1F381010229FAD10CBD00901C
:100590000CBD314810B5016841F4700101602A4872
:1005A000016841F001010160274A00210832116011
:1005B00002682A4B1A400260031D294A1A60026829
:1005C00022F48022026020480C300160FFF790FF87
:1005D00021494FF000608039086010BD70B51A4C99
:1005E000083420681F4A10F00C011F4804D0551031
:1005F000042903D0082903D002601BE0056019E03C
:100600001149091D0B68C3F380560B6803F03F03C3
:1006100016B1B5FBF3F201E0B2FBF3F20B68096827
:10062000C3F388135A43C1F30141491C4900B2FB8B
:10063000F1F1016021680C4AC1F30311121D515CF4
:100640000268CA40026070BD00380240007000407D
:1006500008544007003C024088ED00E0FFFFF6FE32
:10066000103000240024F40000000020494C4A4FC0
:100670004A4D002694ED000A0120BDEEC00A10EE9E
:10068000101A00F082FF94ED010A0220BDEEC00AAC
:1006900010EE101A00F079FF94ED020A0320BDEE6F
:1006A000C00A10EE101A00F070FF94ED030A042047
:1006B000BDEEC00A10EE101A00F067FF052E04DC34
:1006C0000020C7F8B002761C02E00120C7F8B00293
:1006D0000221286802F0F4F928680321404202F060
:1006E000EFF90421286802F0EBF92868052140425F
:1006F00002F0E6F9062004F0B5F9BBE7284F294CD3
:10070000294D2A4EDFF8A880DFF8A890DFF8A8A0CE
:100710003878282828D006DC01281CD014281DD0C1
:100720001E2806D11DE0322821D0C82801D0DE289D
:1007300020D020680BF0FEFC41EC130B95ED002A55
:10074000D6ED001A98ED001AD9ED000A9AED000ACC
:1007500001F003FF10E001F00DFD0DE001F06EFD72
:100760000AE001F099FD07E001F0C4FD04E001F0AA
:10077000EFFD01E001F01AFE052004F073F9C7E770
:100780000E4C207808B102F03AF9032004F06AF91F
:10079000F7E700008C000020000042421400002017
:1007A0005C000020240000206400002020000020C5
:1007B0006C00002030000020680000206000002055
:1007C000F0B501218BB0084602F0F9FD0121480681
:1007D00002F013FE4FF4C050079002208DF8200065
:1007E00000248DF822400326CC4F8DF8216001258E
:1007F0008DF8235007A9384602F0C8FB09220B21C7
:10080000384602F04CFC09220C21384602F047FC25
:100810008DF806408DF807408DF8024008208DF8CD
:1008200003408DF804008DF808408DF80560ADF8A0
:1008300000608DF80950BA4E8DF80A408DF80B40D3
:100840006946304603F03FFD8DF816408DF817409D
:100850008DF81850ADF80C40ADF81040ADF80E40D2
:10086000ADF81240ADF814408DF8195003A803F00C
:100870009EFD01220221304603F0C8FF14208DF8AE
:1008800024008DF825508DF826408DF8275009A8B2
:1008900002F0BDFA0BB00020F0BDF0B585B000232A
:1008A0008DF8083000928DF809308DF80A106A46EC
:1008B00004E0C45CD5185B1CEC729BB28B42F8D38D
:1008C000974F1146384603F02DFE0646002440F6A9
:1008D000FF7501E0641CA4B23146384603F074FE93
:1008E00008B9AC42F6D3AC4202D3002005B0F0BD4B
:1008F0000120FBE72DE9F0418AB00121022002F03E
:100900005EFD0121880602F078FD02278DF8207037
:1009100000244FF440508DF822400326DFF8048273
:1009200007908DF8216001258DF8235007A94046D6
:1009300002F02CFB09220C21404602F0B0FB0922F8
:100940000D21404602F0ABFB8DF806408DF80740C4
:100950008DF8024008208DF803408DF804008DF8D2
:1009600008408DF80560ADF800608DF809406E4EC6
:100970008DF80A408DF80B506946304603F0A3FC11
:100980000E208DF816008DF817408DF81850ADF830
:100990000C40ADF81040ADF80E40ADF81240ADF887
:1009A00014408DF8195003A803F001FD0122022123
:1009B000304603F02BFF40208DF824008DF8257081
:1009C0008DF826408DF8275009A802F020FA0AB0C9
:1009D000BDE8F081F0B585B000238DF808300092B5
:1009E0008DF809308DF80A106A4604E0C45CD51809
:1009F0005B1CEC729BB28B42F8D34B4F11463846CE
:100A000003F090FD0646002440F6FF7501E0641CEB
:100A1000A4B23146384603F0D7FD08B9AC42F6D34C
:100A2000AC4201D3002061E701205FE730B52DED36
:100A3000028B85B005F07FFA6A4600213A4803F040
:100A400001FE0098394C112802D0122807D021E06D
:100A5000DDF80B00E060DDF80F0020611AE0DDF842
:100A60000B006061DDF80F5065600BF0D2F89FED70
:100A7000308B53EC182B0BF033F90AF05DFEA061BC
:100A800028460BF0C6F853EC182B0BF029F90AF0A6
:100A900053FEA06005F05AFA05B0BDEC028B30BDE4
:100AA0009FED231B10B553EC112B51EC100B0AF0EA
:100AB00029FF0BF07FF82860287B2070287A2071AE
:100AC0002879207228782074206810BD10B515226E
:100AD0002DED048BB0EE419AF0EE619AB0EE408AB3
:100AE000F0EE608A02211148FFF774FFB0EE480A69
:100AF000F0EE680AFFF7D4FFB0EE490AF0EE690A9B
:100B0000FFF7CEFF09491522C86108480821BDEC4E
:100B1000048B1C30BDE810405CE700000000024080
:100B200000640040000402400068004018000020FB
:100B3000598638D6C56DB43F0278FE48062A08D2D9
:100B4000DFE802F003052D2F3133FB4A00E0FB4ABA
:100B50008260806843885A1C92B2962A00D3002291
:100B600093421BD003EB430300EB830340F22912B3
:100B70009A804388012203EB430300EB83039A71BD
:100B8000428802EB420200EB8202D1714188491C8B
:100B900089B24180962901D3002141807047E84AFB
:100BA000D6E7E84AD4E7E84AD2E7E84AD0E7F0B522
:100BB0000678E04C059D062E08D2DFE806F0030516
:100BC00060626466DC4E00E0DC4EA660A468678864
:100BD0007E1CB6B2962E00D30026B4F800C0B445F1
:100BE0004CD0007807EB470604EB860600F5407012
:100BF000B0806688082006EB460604EB8606B071D6
:100C00006688087806EB460604EB8606F07148789D
:100C1000618801EB410104EB81010872608800EBFF
:100C2000400004EB800042726188D80101EB410171
:100C300004EB81018872608800EB400004EB8000C7
:100C4000C5726188280A01EB410104EB8101087338
:100C50006188280C01EB410104EB81014873618834
:100C6000280E01EB410104EB810188736088401C70
:100C700080B26080962801D300206080F0BDB04E25
:100C8000A3E7B04EA1E7B04E9FE7B04E9DE730B569
:100C90000378A84A062B08D2DFE803F003053335B2
:100CA0003739A54B00E0A54B936092685488631CCC
:100CB0009BB2962B00D3002315889D4220D004EBD5
:100CC000440402EB84040023A3805588022405EB2E
:100CD000450502EB8505AC71548804EB440402EB36
:100CE0008404E1715188007801EB410102EB81013C
:100CF00008725088401C80B25080962800D35380E0
:100D000030BD8F4BD0E78F4BCEE78F4BCCE78F4B6F
:100D1000CAE7F0B50578874C062D08D2DFE805F064
:100D200003055E606264844D00E0844DA560A468A4
:100D30006688751CADB2962D00D300252788AF427A
:100D40004BD0007806EB460504EB850500F5C06046
:100D5000A8806588082005EB450504EB8505A8718A
:100D60006588222005EB450504EB8505E871608860
:100D700000EB400004EB80000172080A618801EB7F
:100D8000410104EB81014872608800EB400004EBF4
:100D900080008272608800EB400004EB8000C37228
:100DA0006188180A01EB410104EB81010873618835
:100DB000180C01EB410104EB810148736188180EA6
:100DC00001EB410104EB810188736088401C80B213
:100DD0006080962801D300206080F0BD584DA5E7C3
:100DE000584DA3E7584DA1E7584D9FE710B552481D
:100DF00001F008F9514801F005F9514801F002F9F4
:100E0000504801F0FFF8504801F0FCF8BDE81040F0
:100E10004E4801F0F7B87FB50C4605460121202069
:100E200002F0EBFA37208DF80C008DF80D508DF89C
:100E30000E4001208DF80F0003A801F0E8FF4FF4E9
:100E4000527001900920ADF800000020ADF80800B4
:100E50003F4CADF802008DF80A006946204602F0CA
:100E6000BFFD01221146204603F043F9012120462F
:100E700003F050F90121204602F02AFE7FBD2DE942
:100E8000F047344F2B4900240125DFF8CC908AB07D
:100E900006464FF002084FF0030AB8421ED1CF6059
:100EA0000121082002F08BFA0121480602F0A5FA80
:100EB0008DF82080DFF8A4808DF82240CDF81CA0AA
:100EC0008DF8235007A9404602F060F8092200215E
:100ED000404602F0E4F80922012122E04E4523D1E8
:100EE000C1F80C900121022002F069FA01214FF0B3
:100EF000C06002F082FA8DF820804FF44050DFF895
:100F0000608007908DF822408DF8235007A9404655
:100F100002F03CF809220D21404602F0C0F80922F7
:100F20000C21404602F0BBF8304603F0B9F96846A0
:100F300018E000003C000020E40F0020F016002024
:100F4000FC1D002008250020142C00202033002048
:100F5000001400400064004000680040000C0240A3
:100F60000004024003F084FA8DF806408DF8084032
:100F70008DF807408DF809408DF802404FF00808C1
:100F80008DF80A408DF803408DF804808DF80B50E1
:100F90008DF805A0ADF800A06946304603F093F93E
:100FA0008DF81640ADF8104006208DF817408DF8EA
:100FB0001850ADF80C40ADF81200ADF80E40ADF889
:100FC00014408DF8195003A803F0F1F93846864211
:100FD0000AD10122022103F019FC14208DF824000B
:100FE00007208DF825000BE0484686420FD10122EC
:100FF000022103F00BFC40208DF824008DF82580A1
:101000008DF826408DF8275009A801F000FF0AB09E
:10101000BDE8F0872DE9F84314460E460025FFF79A
:101020002EFF21463046FFF7F6FEFFF7DFFEFE4CAF
:1010300004F815506D1CEDB2052DF9D9DFF8EC83DD
:101040004021012588F8001004EB45068221304636
:10105000FFF71DFE30463221FFF76EFD6D1CEDB22D
:10106000052DF1D900BF00BF43F6FD7000BF401E43
:10107000FCD1EE4B4FF000455B1E1878012813D0D1
:101080004FF4FA7200204AF26A263146491EFDD218
:10109000401C9042F9D35E684FF00007F043C00651
:1010A0000ED0AE420BD00CE0E14C002201212046D4
:1010B00003F01FF80021204602F00AFD2E4679E0D9
:1010C0003E4600231A464FF4D051D748FFF721FE81
:1010D0009621D548FFF730FD00231A4641F601213D
:1010E000D148FFF716FE9621CF48FFF725FD2821AE
:1010F000CD48FFF721FD0121CB48FFF7C8FD28218E
:10110000C948FFF719FD00231A46CAA1C64800972F
:10111000FFF74DFD5021C448FFF70EFD01270023C6
:101120001A46C5A1C0480097FFF741FD2821BE48D7
:10113000FFF702FDC14D00231A46C1A1BA48009530
:10114000FFF735FD2821B848FFF7F6FC00231A46C3
:10115000BCA1B5480095FFF72AFD2821B248FFF74A
:10116000EBFC022500231A46B7A1AF480095FFF714
:101170001EFD2821AC48FFF7DFFC88F80150002055
:1011800004EB4001401CC0B24D700528F8D9002383
:101190001A46A8A1A4480097FFF709FDFA21A24822
:1011A000FFF7CAFCFA21A048FFF7C6FC32219E488F
:1011B000FFF7C2FC3046BDE8F88370B515460E4611
:1011C0000024FFF75CFE29463046FFF724FEFFF7B8
:1011D0000DFE954800F81440641CE4B2052CF9D9C2
:1011E000924940200870002070BDF8B58E498023D8
:1011F00001EB4004002246F240012046FFF789FD42
:1012000020461421FFF798FC20460223002242F6D4
:101210004171FFF77EFD20461421FFF78DFC20462B
:101220008221FFF734FD20461E21FFF785FC204672
:101230000121FFF72CFD20461E21FFF77DFC012533
:1012400000231A467CA178480095FFF7B0FC2046A1
:101250001421FFF771FC7D4E00231A4678A17248D5
:101260000096FFF7A4FC20462821FFF765FC002329
:101270001A4674A16C480096FFF799FC2046282175
:10128000FFF75AFC00200090002320461A4669A16F
:10129000FFF78DFC20461E21FFF74EFC0023204661
:1012A0001A4664A10095FFF782FC2046BDE8F8408D
:1012B0003C2141E4F0B501002DED028B4FF000051B
:1012C000594E81B0B0EE408A28464FF0010706EB38
:1012D00041042FD1717801292CD051B10090002305
:1012E00030461A4653A1FFF762FC30466421FFF7EF
:1012F00023FC4E4880F8017006EB45006D1CEDB2F2
:101300004770052DF8D9002320461A464EA10097B4
:10131000FFF74DFC20460A21FFF70EFC0023204674
:101320001A4644A10097FFF742FC20461E21FFF712
:1013300003FC35E06178012932D051B100900023DF
:1013400020461A463BA1FFF732FC20466421FFF7F6
:10135000F3FB6770002320461A463BA10097FFF776
:1013600026FC20460A21FFF7E7FB002320461A4609
:1013700030A10097FFF71BFC20461E21FFF7DCFB86
:101380005FF0010006EB40014A78C9788A4205D136
:10139000401CC0B277700528F4D301E006207070BD
:1013A0008DED008A20460123002229A1FFF7FFFBD3
:1013B00020460A21FFF7C0FB01B00020BDEC028BE4
:1013C000F0BD2DE9F8430100174E4FF00005284607
:1013D0004FF001084FF0020706EB410448D1717845
:1013E000022945D051B10090002330461A4611A180
:1013F000FFF7DDFB30466421FFF79EFB0B4847708B
:1014000006EB45006D1CEDB24770052DF8D90023A1
:1014100020461A460CA10097FFF7C9FB20460A2177
:10142000FFF78AFB204615E02C3A00203D00002003
:10143000001400404D4F0000504D00008096980071
:101440004143000044430000554D000040420F005E
:101450005443000000231A46AFF22801CDF8008063
:10146000FFF7A5FB2046BDE8F8431E21FFF764BB4C
:101470006178022933D059B10090002320461A46E2
:10148000AFF25001FFF793FB20466421FFF754FBB6
:101490000023677020461A46AFF254010097FFF709
:1014A00086FB20460A21FFF747FB002320461A4609
:1014B000AFF28001CDF80080FFF779FB20461E21B6
:1014C000FFF73AFB5FF0010006EB40014A78C9786C
:1014D0008A4205D1401CC0B277700528F4D36AE671
:1014E0000620707067E630B50378F74A062B08D2FD
:1014F000DFE803F0030543454749F44B00E0F44BB4
:10150000936092685488631C9BB2962B00D300238F
:1015100015889D4230D0007804EB440302EB83032E
:1015200000F5407098805388042003EB430302EBDE
:10153000830398715388087803EB430302EB83031A
:10154000D8714878518801EB410102EB81010872A2
:101550005188002001EB410102EB81014872518862
:1015600001EB410102EB810188725188491C89B26B
:101570005180962900D3508030BDD64BC0E7D64B62
:10158000BEE7D64BBCE7D64BBAE72DE9F843894610
:101590000100D44E4FF0000528464FF001084FF0EF
:1015A000020706EB410434D17178022931D059B1D8
:1015B0000090002330461A46AFF28811FFF7F7FA81
:1015C00030466421FFF7B8FABF48401C80F801702C
:1015D00006EB45006D1CEDB24770052DF8D90023D0
:1015E00020461A46AFF2A0110097FFF7E0FA204616
:1015F0000A21FFF7A1FA002320461A46AFF2CC11C8
:10160000CDF80080FFF7D3FA20461E21FFF794FAA9
:1016100038E06178022935D059B100900023204686
:101620001A46AFF2F011FFF7C2FA20466421FFF725
:1016300083FA0023677020461A46AFF2F411009730
:10164000FFF7B5FA20460A21FFF776FA0023204675
:101650001A46AFF22021CDF80080FFF7A8FA204605
:101660001E21FFF769FA012006EB40014A78C9788C
:101670008A4205D1401CC0B277700528F4D301E03E
:1016800006207070002320461A4697A1CDF80090DE
:10169000FFF78DFA20460A21FFF74EFA204693A164
:1016A000FFF721FF20460A21FFF746FA002082E5D6
:1016B0002DE9F84F16460AAA8A4C92E8000F1D46FB
:1016C00004EB4007002300911A4687A13846FFF734
:1016D0006EFA04EB460600231A4683A130460095B5
:1016E000FFF765FA04EB480500231A467EA1284659
:1016F000CDF80090FFF75BFA04EB4A0400231A468A
:1017000079A12046CDF800B0FFF751FA38460A21FA
:10171000FFF712FA30460A21FFF70EFA28460A218F
:10172000FFF70AFA20460A21FFF706FA38466FA1AA
:10173000FFF7D9FE30466DA1FFF7D5FE28466BA115
:10174000FFF7D1FE204669A1FFF7CDFE38461421F0
:10175000FFF7F2F930461421FFF7EEF9284614217D
:10176000FFF7EAF92046BDE8F84F1421FFF7E4B986
:101770002DE9F84F8A4601005A4E4FF000059B466E
:10178000174628464FF001094FF0050806EB4104C3
:1017900035D17178052932D059B1009000233046F7
:1017A0001A46AFF27031FFF702FA30465A21FFF7BE
:1017B000C3F945494046491C81F8018006EB4501C3
:1017C0006D1CEDB24870052DF8D90090002320461D
:1017D0001A46AFF28C31FFF7EAF920461421FFF7E1
:1017E000ABF9002320461A46AFF2B831CDF800908D
:1017F000FFF7DDF920461E21FFF79EF93CE06178F6
:10180000052939D059B10090002320461A46AFF27D
:10181000DC31FFF7CCF920465A21FFF78DF9002380
:10182000454684F8018020461A46AFF2E431CDF8EF
:101830000080FFF7BCF92046C821FFF77DF900239F
:1018400020461A46AFF21441CDF80090FFF7AFF9E9
:1018500020461E21FFF770F95FF0010006EB400102
:101860004A78C9788A4205D1401CC0B275700528F3
:10187000F4D301E006207070002320461A461CA114
:10188000CDF800A0FFF793F920461421FFF754F993
:101890004FF00003BBF1000F20461A46009701D01D
:1018A00014A100E014A1FFF782F920461421FFF7EC
:1018B00043F920460DA1FFF716FE20460A21FFF747
:1018C0003BF90020BDE8F88F3C000020E40F002029
:1018D000F0160020FC1D002008250020142C0020FC
:1018E000203300202C3A00204A56000042470000D6
:1018F000535000005041000050520000F8B5002441
:10190000FE4E25460094D8B1002306EB40041A464B
:10191000AFF2E0412046FFF74AF920466421FFF785
:101920000BF965705FF0010006EB40014A78C97859
:101930008A421BD1401CC0B275700528F4D317E051
:10194000002330461A46AFF21451FFF730F9304603
:101950006421FFF7F1F8EA4880F8015006EB4400F3
:10196000641CE4B24570052CF8D901E006207070C3
:101970000020F8BD2DE9F84FE04E00254FF0060B92
:101980004FF00108AA464FF0020906EB400428B1C7
:10199000607800287ED001287DD02FE1707806285D
:1019A00004D0002878D0012877D027E15FF0010724
:1019B00006EB4705687810B101280CD07FE00023C2
:1019C00028461A46AFF29451CDF80080FFF7EFF8A1
:1019D00020461E2171E0002328461A46AFF2AC5182
:1019E000CDF800A0FFF7E3F82846C821FFF7A4F8D8
:1019F0002846C821FFF7A0F82846C821FFF79CF821
:101A00002846C821FFF798F82846C821FFF794F820
:101A10002846C821FFF790F82846C821FFF78CF820
:101A20002846C821FFF788F82846C821FFF784F820
:101A30002846C821FFF780F82846C821FFF77CF820
:101A40002846C821FFF778F82846C821FFF774F820
:101A5000002385F8019028461A46AFF21461CDF8AC
:101A60000090FFF7A4F828460A21FFF765F8002345
:101A700028461A46AFF24461CDF80080FFF797F888
:101A800028461E21FFF758F8002328461A46AFF2D1
:101A9000A81103E0BCE0C7E02FE039E0CDF800A0DA
:101AA000FFF785F828460A21FFF746F82846AFF2E7
:101AB000C411FFF718FD28460A21FFF73DF8284614
:101AC00090A1FFF710FD28460A21FFF735F87F1C8B
:101AD000FFB2052F7FF66CAF01204A4606EB4001AE
:101AE0004B78C9788B4205D1401CC0B27270052872
:101AF000F4D38BE086F801B088E0002330461A4624
:101B0000AFF2D061CDF80080FFF751F8304689E0A0
:101B10000023574630461A46AFF2E861CDF800A0E0
:101B2000FFF745F83046C821FFF706F83046C821D0
:101B3000FFF702F83046C821FEF7FEFF3046C82105
:101B4000FEF7FAFF3046C821FEF7F6FF3046C821FF
:101B5000FEF7F2FF3046C821FEF7EEFF3046C821FF
:101B6000FEF7EAFF3046C821FEF7E6FF3046C821FF
:101B7000FEF7E2FF3046C821FEF7DEFF3046C821FF
:101B8000FEF7DAFF3046C821FEF7D6FF4FEA09001C
:101B900006EB45016D1CEDB24870052DF8D900909B
:101BA000002320461A46AFF26071FFF700F8204686
:101BB0000A21FEF7C1FF002320461A46AFF28C71BE
:101BC000CDF80080FEF7F3FF20461E21FEF7B4FF9C
:101BD000002320461A46AFF2F0210097FEF7E7FFF8
:101BE00020460A21FEF7A8FF2046AFF20031FFF79A
:101BF0007AFC20465FF00A01FEF79EFF204641A1D5
:101C0000FFF771FC20460A21FEF796FF002059E6F7
:101C1000002320461A46AFF2E471CDF80080FEF7AB
:101C2000C6FF20461E21E7E70023554620461A46F8
:101C3000AFF60001CDF800A0FEF7B9FF2046C8219D
:101C4000FEF77AFF2046C821FEF776FF2046C8211E
:101C5000FEF772FF2046C821FEF76EFF2046C8211E
:101C6000FEF76AFF2046C821FEF766FF2046C8211E
:101C7000FEF762FF2046C821FEF75EFF2046C8211E
:101C8000FEF75AFF2046C821FEF756FF2046C8211E
:101C9000FEF752FF2046C821FEF74EFF2046C8211E
:101CA000FEF74AFF00234F4684F8019020461A466B
:101CB000AFF66C01CDF80090FEF779FF20460A21BF
:101CC000FEF73AFF002320461A46AFF69801CDF8FA
:101CD0000080FEF76CFF20461E21FEF72DFF00233B
:101CE00020461A46AFF200410095FEF760FF2046FD
:101CF0000A21FEF721FF204606E000002C3A0020D2
:101D00003D00002053540000AFF22041FFF7EBFBF1
:101D100020460A21FEF710FF5FF0010006EB4001AC
:101D20004A78C9788A4205D1401CC0B2777005282C
:101D3000F4D363E786F801B060E72DE9F041D14CB8
:101D4000984615460E4604EB4007AFF24801384668
:101D5000FFF7C9FB04EB4606AFF258013046FFF728
:101D6000C2FB04EB4505AFF264012846FFF7BBFB5D
:101D700004EB4804AFF274012046FFF7B4FB384689
:101D80000A21FEF7D9FE30460A21FEF7D5FE284685
:101D90000A21FEF7D1FE2046BDE8F0410A21FEF7F8
:101DA000CBBEF8B50F4600210091B6491646002378
:101DB00001EB40041A46AFF684112046FEF7F7FE09
:101DC00020461E21FEF7B8FE0125002320461A46B4
:101DD000AFF69C110095FEF7EAFE20460A21FEF7B9
:101DE000ABFE002320461A46AFF6AC110097FEF773
:101DF000DEFE20460A21FEF79FFE002320461A46FB
:101E0000AFF6C0110096FEF7D2FE20460A21FEF77B
:101E100093FE002320461A46AFF6E8110095FEF720
:101E2000C6FE20466421FEF787FE0020F8BD00B5FF
:101E300085B004F080F86A460021934802F002FC65
:101E40000098A0F28120102812D2009800F00F0113
:101E50000120491E88408D494A68104348608C49DA
:101E6000009801EB8000A0F52860DDF80F10C16735
:101E70000098A0F299106F2808D20DF10B0100987C
:101E800000F0F1FE0098C0B200F016FF04F05EF81A
:101E900005B000BD70B5044640882188884215D041
:101EA00001EB410004EB800000258288A2F58073DD
:101EB000293B06D0001D00F0B1F82088401C80B2FC
:101EC00007E0C279012A02D9521EC27170BD491CB5
:101ED00088B220809628F9D3258070BD10B504F013
:101EE0002AF801216B4802F015F969484030FFF7E4
:101EF000D1FF6948FFF7CEFF6848FFF7CBFF68487E
:101F0000FFF7C8FF6748FFF7C5FF6748FFF7C2FF45
:101F1000BDE8104004F01AB870B55A4941F60125E1
:101F200001EB40040123002229462046FEF7F1FE82
:101F300020463221FEF700FE20465CA1FFF7D3FACF
:101F400020461421FEF7F8FD002320461A462946B4
:101F5000FEF7DFFE2046BDE870403221FEF7ECBD03
:101F600038B50D46002100914649002301EB40049D
:101F70001A46AFF640312046FEF719FE20465A2198
:101F8000FEF7DAFD002320461A4648A10095FEF729
:101F90000EFE20465A21FEF7CFFD012000900023BF
:101FA00020461A46AFF67431FEF701FE20465A214C
:101FB000FEF7C2FD0620607038BD70B5044641F6DC
:101FC00001250123002229462E48FEF7A2FE2D48B6
:101FD000322100EB44042046FEF7AEFD204634A13A
:101FE000FFF781FA20461421FEF7A6FD00231A46CA
:101FF00029462448FEF78DFE2046BDE87040322178
:10200000FEF79ABD1F49083900208860C860086142
:102010001E49A1F80100008040807047F0B585B0EE
:1020200000258DF808508DF80950018800918178BD
:102030008DF80A1029466A4605E043185418DB78E3
:10204000491CE372C9B29DF80A308B42F5D80F4C97
:102050001146E06802F066FA074642F6FF7600BFD6
:102060003946E06802F0B0FA012802D0761EF6D1B7
:1020700001E0012E03D80120207005B0F0BD2570CD
:10208000FBE700002C3A0020006400403C000020E8
:10209000A40F002000140040F0160020FC1D0020BA
:1020A00008250020142C0020203300205058000068
:1020B000495100007CB50121082001F080F92B4C2A
:1020C00001252B4EA16820680843009000208DF860
:1020D00004008DF807508DF805506946304600F031
:1020E00055FFE16860688DF80450084300900220B5
:1020F0008DF807006946304600F048FFA08881B29D
:10210000304600F0BFFFA08981B2304600F0BAFF30
:102110007CBD70B5154C164D208881B2284600F064
:102120009BFF40B90A2002F09DFC208881B228461E
:1021300000F092FF08B1002070BD012070BD70B5A5
:102140000A4C0B4D208981B2284600F085FF40B92A
:102150000A2002F087FC208981B2284600F07CFF2B
:1021600008B1002070BD012070BD00004C000020AF
:10217000000C024070B52DED048B9FEDBC0BBD4CE7
:1021800053EC102B94ED048B51EC180B09F0A8FDC7
:1021900053EC182B09F0A4FD53EC182B09F0A0FD0B
:1021A00041EC190B9FEDB40B51EC180B53EC102BB9
:1021B00009F096FD53EC182B09F092FD53EC192B06
:1021C00009F0CEFE09F0B8FAAD499FEDAE9BE06094
:1021D000884203DB9FEDAD0A84ED030A9FEDAC0B53
:1021E00051EC180B53EC102B09F0D8FA41EC100B02
:1021F00053EC192B84ED040B09F070FE01D884ED2B
:10220000049BA548006809F095FF41EC130BA34D12
:10221000A34894ED012AD5ED001A94ED031AD0EDF0
:10222000000A94ED020A00F098F99E492868884255
:1022300001DB01202070BDEC048B70BD70B58D4CAE
:10224000F0EE000A984994ED020A30EE200A10EEF2
:10225000100A84ED020A884203DB9FED940A84EDA4
:10226000020A8D48006809F065FF41EC130B8B48AA
:102270008B4D94ED012AD0ED001A94ED031AD5EDA3
:10228000000A94ED020A00F068F98949286888423A
:1022900001DB0120207070BD70B5764CF0EE000AB5
:1022A000844994ED020A30EE200A10EE100A84ED03
:1022B000020A884203DB9FED800A84ED020A764819
:1022C000006809F037FF41EC130B7448744D94ED2E
:1022D000012AD0ED001A94ED031AD5ED000A94ED11
:1022E000020A00F03AF975492868884201DB0120AA
:1022F000207070BD70B55F4CF0EE000A704994ED2F
:10230000020A30EE200A10EE100A84ED020A88421A
:1023100003DB9FED6C0A84ED020A5F48006809F058
:1023200009FF41EC130B5D485D4D94ED012AD0EDA2
:10233000001A94ED031AD5ED000A94ED020A00F09C
:102340000CF961492868884201DB0120207070BDCA
:1023500070B5484CF0EE000A5C4994ED020A30EE8C
:10236000200A10EE100A84ED020A884203DB9FED7A
:10237000580A84ED020A4848006809F0DBFE41EC87
:10238000130B4648464D94ED012AD0ED001A94ED0A
:10239000031AD5ED000A94ED020A00F0DEF84D496B
:1023A0002868884201DB0120207070BD10B5314CD7
:1023B0009FED2E0B2DED048B53EC102B94ED068B23
:1023C00051EC180B09F08CFC53EC182B09F088FC2D
:1023D00053EC182B09F084FC9FED270B41EC190BF3
:1023E00053EC102B51EC180B09F07AFC53EC182B22
:1023F00009F076FC53EC192B09F0B2FD09F09CF9B9
:1024000035499FED209BE060884203DB9FED330A56
:1024100084ED030A9FED320B51EC180B53EC102B9B
:1024200009F0BCF941EC100B53EC192B84ED060BB1
:1024300009F054FD01D884ED069B1748006809F0A7
:1024400079FE41EC130B154894ED012A94ED031A23
:10245000D0ED001A124894ED020AD0ED000ABDEC4E
:10246000048BBDE8104000F078B8000000000000C8
:102470000070D74060000020000000000094D140B0
:102480000040BA44000000000000E03F0040BA44B1
:10249000FCA9F1D24D62603F240000202000002002
:1024A000300000200000B94400008743000087434B
:1024B00000008243000007440000074400800444F9
:1024C00000804A4400804A44004049440000874458
:1024D00000008744006086440080BB440080BB4409
:1024E000FCA9F1D24D62703F1CB50121102000F013
:1024F00066FF4FF4C050012400908DF80440002086
:102500008DF806008DF8070003208DF80500694658
:10251000044800F03BFD0448C0F8AC42C0F8B042AB
:102520001CBD0000001002400000424280EC030A83
:102530009FEDFE0A80ED030A80ED050A80ED060A94
:1025400080ED040AC0ED0A1A80ED0B2AC0ED072ABF
:1025500080ED083A80ED090A7047F0B520222DED94
:102560000A8B89B0B0EE43BAF0EE63BAF0EE428A5D
:10257000F0EE619AB0EE41AAB0EE608AB0EE409AF9
:10258000EB49684608F062FBE94CF0EE480A103C63
:10259000B0EE490A94E80F0000F04CF9E54E202215
:1025A00004F1400186ED010A684608F04FFB04F192
:1025B0003000F0EE690A0FC8B0EE4A0A00F06AF97E
:1025C00086ED020A9FEDDC0B51EC1B0B53EC102B3C
:1025D00009F086FB09F0B0F808EE100A202204F199
:1025E0007001684608F032FB9FEDD50A6034F0EECA
:1025F000480A94E80F0028EE800A00F07AF986ED88
:10260000000A10EE100A09F095FD41EC190BB068B4
:1026100009F090FD41EC1A0B9FEDCA0B51EC1B0B1E
:1026200053EC102B09F05CFB0D4645EC100B0446F7
:102630009FEDC68B51EC100B53EC182B09F0AEF844
:1026400041EC100B08F0E8FB53EC1A2B51EC100B8B
:1026500009F046FB41EC1B0B706809F06BFD41EC87
:102660001C0B45EC104B9FEDBBAB51EC100B53EC2E
:102670001A2B09F093F841EC100B08F0CDFB53EC4A
:102680001C2B51EC100B09F02BFB53EC1B2B09F00E
:1026900085F853EC192B09F081F809F04DF806F193
:1026A0000C073860306809F045FD41EC190BB06843
:1026B00009F040FD45EC104B41EC1B0B53EC1A2B81
:1026C00051EC100B09F06AF841EC100B08F0A4FB78
:1026D00053EC1B2B51EC100B09F002FB41EC1C0BD3
:1026E000706809F027FD41EC1B0B45EC104B9FED8A
:1026F0009BAB51EC100B53EC1A2B09F04FF841EC4B
:10270000100B08F089FB53EC1B2B51EC100B09F05C
:10271000E7FA53EC1C2B09F041F853EC192B09F0A4
:102720003DF809F009F87860306809F003FD41ECE4
:10273000190BB06809F0FEFC45EC104B41EC1B0B8B
:1027400053EC1A2B51EC100B09F028F841EC100B4C
:1027500008F062FB53EC1B2B51EC100B09F0C0FA94
:1027600041EC1A0B706809F0E5FC41EC1C0B45ECE0
:10277000104B9FED7CBB51EC100B53EC1B2B09F065
:102780000DF841EC100B08F047FB53EC1C2B51ECFF
:10279000100B09F0A5FA53EC1A2B08F0FFFF53ECCD
:1027A000192B08F0FBFF08F0C7FFB860306809F08C
:1027B000C1FC41EC190BB06809F0BCFC45EC104BB6
:1027C00041EC1A0B53EC1B2B51EC100B08F0E6FFFD
:1027D00041EC100B08F020FB53EC1A2B51EC100BC2
:1027E00009F07EFA41EC1A0B706809F0A3FC45EC85
:1027F000104B41EC1B0B53EC182B51EC100B08F059
:10280000CDFF41EC100B08F007FB53EC1B2B51ECF8
:10281000100B09F065FA53EC1A2B08F0BFFF53ECCC
:10282000192B08F0BBFF08F087FFF86009B0BDEC7A
:102830000A8BF0BD0FB44D492DED020B30EE600A4E
:102840008DED050AB0EEC00A10EE100A884203DAD8
:102850009FED360A8DED050ADDED070A9DED050AAF
:1028600070EE800ACDED070A9DED061A30EE411A92
:102870008DED081ADDED021A20EE210ADDED031AB6
:1028800000EEA10ADDED040A01EE200A8DED0B0A2F
:1028900006B070470FB435492DED020B30EE600ADB
:1028A0008DED050AB0EEC00A10EE100A884203DA78
:1028B0009FED1E0A8DED050ADDED070A9DED050A67
:1028C00070EE800ACDED070A9DED061A30EE411A32
:1028D0008DED081ADDED021A20EE210ADDED031A56
:1028E00000EEA10ADDED040A01EE200A8DED0B0ACF
:1028F000CEE70FB42DED020B30EE600A8DED050A28
:10290000B0EEC00A10EE100AB0F17E5F03DA9FED60
:10291000070A8DED050ADDED070A9DED050A70EE4B
:10292000800ACDED070A9DED061A21E000000000A7
:10293000483A002080000020000000400AD71240E2
:1029400052B89640AF99D76C40DF913FD34D62109B
:1029500058D90240D34D621058D902C06F1283C0BB
:10296000CA21E9BF6F1283C0CA21E93F0000A0401D
:1029700030EE411A8DED081ADDED021A20EE210A23
:10298000DDED031A00EEA10ADDED040A01EE200AD6
:102990008DED0B0A7CE7000010B5294C06E02146BE
:1029A0000520FEF7F2FD012002F05CF8FFF7B1FB15
:1029B0000028F4D00021BDE810400520FEF7E5BD59
:1029C00010B54EF6602406E021460520FEF7DDFD39
:1029D000012002F047F8FFF7B2FB0028F4D00021F5
:1029E000BDE810400520FEF7D0BD10B5FFF7D4FFBD
:1029F000FFF7E6FF13490120C1F8AC0210BD70B526
:102A0000114C2068012801D0FFF7DAFF0D4E002598
:102A1000C6F8AC5206F52B76FFF7BEFF01203060FA
:102A200020680A49401C2060062803D000EB800083
:102A3000400000E0C82008700548057070BD000027
:102A4000A015FFFF000042429C0000205C00002017
:102A50006000002010B54A1E072A1CD8CF4A9042B9
:102A600002DD5242904200DB1046CD4A030A02EBDF
:102A700041014FF4007201F8023D48700821C84836
:102A8000FDF70BFFC64840F2FF1208210830FDF7A2
:102A900004FF002010BD012010BD00EB4001C04824
:102AA000503000EB410010F8041D4078CA0904D0F2
:102AB000BC4A02EB01210844704700EB012070473B
:102AC00070B50546481E0C46C0B200EB4001B64842
:102AD00000EB011318685860E0B2FFF7DEFF281A18
:102AE0001860996808444FF47A719860884202DA55
:102AF0004942884200DC0846986093ED000AD3ED15
:102B0000030AB8EEC00A20EE800A83ED080A00EE40
:102B1000100AD3ED040AB8EEC00A20EE800A83ED55
:102B2000090AD3E90001401A00EE100AD3ED050AA4
:102B3000B8EEC00A20EE200A83ED0A0AD3ED080A97
:102B400093ED091A70EE810A30EE800A83ED0B0ACC
:102B5000D3ED060AB8EEE01AB4EEC10AF1EE10FAAF
:102B600008DAD3ED070AB8EEE01AB4EEC10AF1EEC6
:102B700010FA01D8B8EEE00AE1B283ED0B0ABDEE1F
:102B8000C00ABDE8704010EE100A63E78449803146
:102B900001EB800050F8040C704710B50446481E45
:102BA0000B46C0B200EB4001804800EB01121068F8
:102BB0005060D8B2FFF7EAFF201A1060916808440D
:102BC00044F620619060884202DA4942884200DC83
:102BD0000846906092ED000AD2ED030AB8EEC00AF2
:102BE00020EE800A82ED080A00EE100AD2ED040AF7
:102BF000B8EEC00A20EE800A82ED090AD2E900018F
:102C0000401A00EE100AD2ED050AB8EEC00A20EE16
:102C1000200A82ED0A0AD2ED080A92ED091A70EE36
:102C2000810A30EE800A82ED0B0AD2ED060AB8EE78
:102C3000E01AB4EEC10AF1EE10FA08DAD2ED070A92
:102C4000B8EEE01AB4EEC10AF1EE10FA01D8B8EE0F
:102C5000E00A194682ED0B0ABDEEC00ABDE810403D
:102C600010EE100A2CE7012202F5007398420BD1F6
:102C700002EB42004A4A503202EB40000A6840F838
:102C8000062D898881807047521C092AECDB704729
:102C900000EB40014248503000EB410111F8040DB7
:102CA000C209C878897804D03E4A02EB0121084461
:102CB000704700EB0120704730B5394A411E01EBE7
:102CC0004103503202EB430412F81320647888B0B9
:102CD00004EB0223324C4DF821303034401E54F8BE
:102CE00021209D1AA4F12002B5F5805F52F8200042
:102CF00003DBA0F5F850FF3805E015F5805F04DC34
:102D000041F6FF75284442F8210044F8213052F87A
:102D10002100234A1844803242F8210008B030BD17
:102D200023499FED241A01EB800050ED010A60EE6B
:102D3000810A20EE800ADFED200A80EE201ABDEE27
:102D4000C10A10EE100A704710B504461848DFEDAE
:102D5000190A00EB81002DED028B10ED010A20EE27
:102D6000200A10EE100A09F0E5F941EC180B204694
:102D700008F04FFF9FED111B53EC112B08F0B0FF33
:102D800053EC182B08F0BEFD08F014FF08F041FFCB
:102D9000BDEC028B41EC100B10BD0000F0D8FFFF22
:102DA000C83A00200100FFFFA00000202002002000
:102DB0002CC20008000000460000B44300000000E0
:102DC000008076400948804709480047FEE7FEE753
:102DD000FEE7FEE7FEE7FEE7FEE7FEE7FEE7FEE7CB
:102DE00004480549054A064B704700009305000852
:102DF00089010008585C002058620020585E0020BD
:102E0000585E00202849084328490860704730B5BB
:102E10000F22C47801780123FCB1244C246801F10D
:102E2000E02104F4E064C4F5E064C4F30724C4F1D1
:102E30000405E2404478AC408578154025432A01DA
:102E400081F80024007800F01F018B4040098000C9
:102E500000F1E020C0F8003130BD01F01F008340D8
:102E60004809800000F1E020C0F8803130BD104AF0
:102E7000114001430D48001F016070470B4A121DAD
:102E80000029116801D0014300E0814311607047BF
:102E90004FF0E0210428086903D020F00400086105
:102EA000704740F00400FAE70000FA050CED00E07E
:102EB00080FFFF1F824910B5884206D101210846D4
:102EC00000F0AFFA002101205BE07E49884206D184
:102ED0000121022000F0A5FA0021022051E07A49E8
:102EE000884206D10121042000F09BFA0021042031
:102EF00047E07649884206D10121082000F091FA86
:102F0000002108203DE07249884206D101211020AD
:102F100000F087FA0021102033E06E49884206D184
:102F20000121202000F07DFA0021202029E06A49BB
:102F3000884206D10121402000F073FA0021402090
:102F40001FE06649884206D10121802000F069FA1D
:102F50000021802015E06249884202D101218415B8
:102F60000AE06049884202D10121441504E05E492B
:102F700088420AD101210415204600F052FA0021AE
:102F80002046BDE8104000F04CBA10BDF0B500235B
:102F9000012403270D6804FA03F21540954242D13B
:102FA000D0F800C05E0007FA06F52CEA050CC0F860
:102FB00000C091F804C0D0F800E00CFA06FC4CEA1E
:102FC0000E0CC0F800C091F804C0BCF1010F02D093
:102FD000BCF1020F1FD1D0F808C02CEA050CC0F8D4
:102FE00008C091F805C0D0F808E00CFA06FC4CEADD
:102FF0000E0CC0F808C0D0F804C02CEA020CC0F8CF
:1030000004C0426891F806C00CFA03FC1FFA8CFC5D
:1030100042EA0C024260C268AA43C260CA79C5682B
:10302000B2402A43C2605B1C102BB3D3F0BD4FF6F5
:10303000FF7101600021017141718171C17170479F
:1030400008B541F480320092C261C1610099C1614A
:10305000C169C069009008BD0246002012690A4299
:1030600000D001207047006980B2704702460020FE
:1030700052690A4200D001207047406980B270470F
:1030800001837047418370470AB1018370474183D0
:1030900070474161704742694A40426170474B073F
:1030A000DB0E9A40C90810B500EB8100016A0F24BD
:1030B0009C40A1430162016A1143016210BD0000FE
:1030C000000002400004024000080240000C0240E0
:1030D000001002400014024000180240001C024090
:1030E000002002400024024000280240F848016805
:1030F00041F001010160F64A0021083211600268C6
:10310000F44B1A400260031DF34A1A60F04BF34A75
:1031100084331A60F04A103A1B1D1A60026822F4C8
:1031200080220260EA480C300160181D016070477F
:10313000E7490022891C0A70087070470246002087
:10314000510901290CD002290CD0E14974310968D8
:1031500002F01F02012393400B4200D00120704770
:10316000DB49F4E7DA497031F1E718B500204FF494
:10317000A04400903120FFF7E1FF0099491C009125
:10318000A14201D00028F5D03120FFF7D7FF002859
:1031900000D0012018BDCE490A6822F0F80242EAA8
:1031A000C00008607047CE4908607047C8490022D7
:1031B00070310A700A70012802D0042801D105205C
:1031C00008707047C7490860704741EA82115A0881
:1031D00010B5C54B029C03EB02421143014341EA87
:1031E0000460BB49091D086010BDBD4908667047F1
:1031F000800140EA0170B649843108607047B849DF
:1032000088667047800140EA0160B14940EA027077
:10321000883108607047B24908677047B049C86490
:103220007047AB4A08321368084323F0EC63184335
:1032300010607047A64A08321368084323F07843A9
:10324000184310607047A24A0832116821F0030148
:103250000143116070479E480830006800F00C0080
:1032600070479B4A0832116821F0F0010143116058
:103270007047974A0832116821F4E0510143116008
:103280007047934908310A6822F4604242EAC0005C
:103290000860704770B58E4A08321168934C11F07F
:1032A0000C0104D06610042903D0082903D004605F
:1032B0001BE0066019E08649091D0B68C3F38055C1
:1032C0000B6803F03F0315B1B6FBF3F301E0B4FB69
:1032D000F3F30C680968C4F388146343C1F3014134
:1032E000491C4900B3FBF1F1016011680F2303EAA7
:1032F00011117F4B5C5C0168E14041601468072557
:1033000005EA94241C5D21FA04F48460126805EA3D
:1033100052329A5CD140C16070BDC0F301210329D3
:1033200008D16B4A0832116821F4F8137149014041
:1033300019431160664970310A68C0F30B000243FB
:103340000A607047674944390860704765494039E9
:10335000086070476249C1F85C0170475C4A8C3272
:103360001168401E21F01F01014311607047584948
:103370008C310A686FF0FF0322F4F85203EB00204F
:10338000104308607047524A8C32116821F4401192
:103390000143116070474E4A8C32116821F440019C
:1033A0000143116070474A4A8C32116821F4403160
:1033B0000143116070475049C1F8E0017047444A29
:1033C00030320029116801D0014300E081431160CF
:1033D00070473F4A34320029116801D0014300E0B0
:1033E0008143116070473A4A38320029116801D090
:1033F000014300E0814311607047354A40320029A3
:10340000116801D0014300E0814311607047304AE8
:1034100044320029116801D0014300E0814311606A
:1034200070472B4A10320029116801D0014300E097
:10343000814311607047264A14320029116801D077
:10344000014300E0814311607047214A183200298E
:10345000116801D0014300E08143116070471C4AAC
:1034600020320029116801D0014300E0814311603E
:103470007047174A24320029116801D0014300E047
:10348000814311607047124A50320029116801D0FF
:10349000014300E08143116070470D4A5432002916
:1034A000116801D0014300E0814311607047084A70
:1034B00058320029116801D0014300E081431160B6
:1034C0007047034A60320029116817D0014316E0A3
:1034D00000380240FFFFF6EA1030002400300020E0
:1034E00000004742800E47420000FFFF0024F40026
:1034F000A0030020FFFCFF0F001047428143116032
:103500007047194A0029116801D0014300E0814346
:103510001160704714490C310128086803D020F06D
:1035200008000860704740F00800FAE70E4A573A72
:103530000029117801D0014300E0814311707047E8
:1035400009481030016841F0807101607047014600
:10355000054A0020583A12680A4200D001207047FC
:10356000014956390870704764380240CD4910B59A
:10357000884206D101211020FFF77BFF0021102097
:1035800020E0C949884202D101214C0429E0C74901
:10359000884202D101218C0423E0C549884202D12E
:1035A0000121CC041DE0C349884202D101210C0550
:1035B00017E0C149884209D101212020FFF759FFB6
:1035C00000212020BDE81040FFF753BFBB498842CF
:1035D00002D101218C0704E0B94988420AD10121B6
:1035E00044052046FFF73BFF2046BDE81040002180
:1035F000FFF735BF10BD7FB50446008A0D4620F4A5
:103600004051E88808432082A08941F20C61884338
:10361000A9882A8911436A8902431143A181A08A9A
:1036200020F44071A8890843A0826846FFF732FE63
:103630009C48844202D0A048844201D1039800E013
:103640000298A189090400EBC00101EB0010296870
:1036500001D5490000E08900B0FBF1F26420B2FB23
:10366000F0F109010B096FF018056B4302EB8302BF
:10367000A3891D044FF0320306D503EBC202B2FB4F
:10368000F0F000F0070005E003EB0212B2FBF0F0EF
:1036900000F00F00084320817FBD4FF416510160F8
:1036A00000218180C18001810C224281818170478B
:1036B00010B5028A4C8822F470630A8822438C88F1
:1036C000C9880C4322431A43028210BD00210180A5
:1036D00041808180C18070470029818902D041F4F6
:1036E000005101E021F4005181817047028B02F406
:1036F0007F420283028B0A4302837047002981893B
:1037000002D041F4004101E0C1F30E018181704714
:103710000029818A02D041F4006101E021F40061B6
:1037200081827047C1F30801818070478088C0F3AF
:1037300008007047028A22F00F020282028A0A43BE
:10374000028270470029818902D041F0020101E024
:1037500021F0020181817047828922F40062828116
:1037600082890A4382817047028A22F02002028203
:10377000028A0A43028270470029018A02D041F47A
:10378000804101E021F4804101827047818941F04C
:103790000101818170470029818A02D041F008012E
:1037A00001E021F0080181827047028BD2B20283CE
:1037B000028B42EA0121018370470029818A02D0ED
:1037C00041F0200101E021F02001818270470029B1
:1037D000818A02D041F0100101E021F010018182C4
:1037E0007047828A22F004028282828A0A4382829D
:1037F00070470029818A02D041F0020101E021F0E6
:10380000020181827047002A828A01D00A4300E0C7
:103810008A438282704710B5C1F3421301F01F043E
:103820000121A140012B07D0022B07D01430002A20
:10383000026805D00A4304E00C30F8E71030F6E7E0
:103840008A43026010BD0246002012880A4200D05E
:1038500001207047C9430180704730B501F01F0255
:1038600001240025C1F3421304FA02F2012B0FD008
:10387000022B0FD0838A4FEA11210088134204FAE9
:1038800001F400EA040001D000B10125284630BD52
:103890008389F0E7038AEEE70A0A01219140C943D0
:1038A0000180704700100140004400400048004083
:1038B000004C0040005000400014014000780040DF
:1038C000007C0040FE4910B5884206D1012108461F
:1038D000FFF7CFFD002101205BE0B0F1804F09D060
:1038E000F84988420DD101210220FFF7B8FD0021DF
:1038F000022070E001210846FFF7B1FD0021012000
:1039000069E0F149884206D101210420FFF7A7FDB3
:10391000002104205FE0ED49884206D10121082002
:10392000FFF79DFD0021082055E0E949884206D1B6
:1039300001211020FFF793FD002110204BE0E54905
:10394000884206D101212020FFF789FD0021202097
:1039500041E0E149884206D101210220FFF789FDBB
:103960000021022015E0DD49884202D101210C042A
:103970000AE0DB49884202D101214C0404E0D94924
:1039800088420AD101218C042046FFF772FD0021F4
:103990002046BDE81040FFF76CBDD349884206D1F0
:1039A00001214020FFF75BFD0021402013E0CF49BB
:1039B000884206D101218020FFF751FD002180209F
:1039C00009E0CB4988420AD1841501212046FFF73E
:1039D00046FD00212046BDE81040FFF740BD10BD68
:1039E00030B50288B64BBC4C98420DD0A0420BD0EB
:1039F000B0F1804F08D0B34DA84205D0B24DA842D7
:103A000002D0B24DA84203D122F070054A882A4361
:103A1000AF4DA84206D0AF4DA84203D022F4407566
:103A20000A892A4302804A68C2620A88028598424B
:103A300001D0A04201D1897A01860121818230BD65
:103A40004FF0FF314160002101800181418081728E
:103A50007047018582827047028822F070020A4313
:103A60000280704741627047C1627047406A704788
:103A7000008D70470029018802D041F0020101E069
:103A800021F00201018070470029018802D041F035
:103A9000040101E021F00401018070470029018840
:103AA00002D041F0800101E021F0800101807047E7
:103AB000028822F00802028002880A4302807047CE
:103AC000028822F44072028002880A430280704712
:103AD0000029018802D041F0010101E021F001013B
:103AE0000180704730B5028C22F001020284028C02
:103AF0008388048B22F0020224F073050C882C4387
:103B00008D8915434A882A436D4DA84202D0724DD3
:103B1000A8420DD122F00805CA8923F440732A4334
:103B200022F004058A882A430D8A1D434B8A2B43C1
:103B30008380048389684163028430BD70B5028C40
:103B400022F010020284028C8488038B0D8823F4F7
:103B5000E6464FF6FF7303EA052535438E8922F0CA
:103B6000200203EA061616434A8803EA0212324389
:103B7000534EB04202D0584EB04215D122F08006CA
:103B8000CA8924F4406403EA0212324322F0400658
:103B90008A8803EA021232430E8A03EA8606264323
:103BA0004C8A03EA840434438480058389688163F2
:103BB000028470BD70B5028C22F480720284028C83
:103BC0008488838B0D8823F073031D4322F40073D4
:103BD0008E894FF6FF7202EA06261E434B8802EAE0
:103BE00003233343364EB04202D03B4EB04215D190
:103BF00023F40066CB8924F4405402EA03233343C0
:103C000023F480668B8802EA032333430E8A02EA98
:103C1000061626434C8A02EA0414344384808583C2
:103C20008968C163038470BD70B5028C22F4805230
:103C30000284048C8288838B0D8823F4E6464FF639
:103C4000FF7303EA0525354324F400568C8903EA03
:103C5000043434434E8803EA06362643184CA04207
:103C600002D01D4CA04205D122F480440A8A03EA06
:103C7000821222438280858389680164068470BD34
:103C8000002101804180818081608181C181018228
:103C90004182704730B50124058C00F118038C4037
:103CA000A543058431B308292CD0091FC1F34E0068
:103CB0001844016848F6FF731940016001681AE072
:103CC000000001400004004000080040000C0040DB
:103CD000001000400014004000040140004001407A
:103CE000004401400048014000180040001C004012
:103CF0000020004006E04FF6FF7303EA0222114362
:103D0000016030BD03EB510001684FF68F7319401D
:103D100001600168F3E74163704781637047C163E5
:103D2000704701647047028B22F070020A430283DD
:103D30007047028B4FF6FF7322F4E04203EA012141
:103D4000114301837047828B22F070020A43828301
:103D50007047828B4FF6FF7322F4E04203EA0121A1
:103D6000114381837047028B22F008020A430283C9
:103D70007047028B4FF6FF7322F4006203EA0121C1
:103D8000114301837047828B22F008020A43828329
:103D90007047828B4FF6FF7322F4006203EA012121
:103DA000114381837047028B22F004020A4302838D
:103DB0007047028B4FF6FF7322F4806203EA012101
:103DC000114301837047828B22F004020A438283ED
:103DD0007047828B4FF6FF7322F4806203EA012161
:103DE000114381837047028B22F080020A430283D1
:103DF0007047028B4FF6FF73C2F30E0203EA0121F4
:103E0000114301837047828B22F080020A43828330
:103E10007047828B4FF6FF73C2F30E0203EA012153
:103E2000114381837047028C22F002020A4302840C
:103E30007047028C22F008020A4302847047028C09
:103E40004FF6FF7322F0200203EA011111430184AF
:103E50007047028C4FF6FF7322F0800203EA0111D3
:103E6000114301847047028C4FF6FF7322F40072F5
:103E700003EA0121114301847047028C4FF6FF735E
:103E800022F4006203EA0121114301847047028C8D
:103E90004FF6FF7322F4005203EA0131114301840B
:103EA000704710B50123048C8B409C430484038C21
:103EB0008A401343038410BD10B50423048C8B4047
:103EC0009C430484038C8A401343038410BD828B7B
:103ED00022F440628283828B4FF6FF7303EA012152
:103EE0000A4382837047828B22F00C028283828B8A
:103EF0000A4382837047028B22F440620283028B62
:103F00004FF6FF7303EA01210A4302837047F0B5BD
:103F1000048C24F010040484078B068C4FF6FF7485
:103F200004EA011527F4734704EA0331394304EA2C
:103F300002220A4326F0A001294341F01001028326
:103F40000184F0BD028B22F00C020283028B0A4333
:103F5000028370472DE9F0410D460E884988AA88F2
:103F60002B8904460EB3042E26D0082E268C4FF63D
:103F7000FF7028D026F480562684A78B268C00EA72
:103F8000022200EA013127F473473A4300EA033082
:103F9000104326F420420A4342F48051A083218436
:103FA000E9882046BDE8F04191E700F062F9E98830
:103FB0002046BDE8F041C5E7FFF7A9FFE9882046A4
:103FC000BDE8F04197E726F480762684A78B268CFF
:103FD00000EA012100EA0310104327F0F3073843F9
:103FE00026F420620A4342F48071A0832184E98888
:103FF0002046BDE8F04176E70021018041800122A2
:104000008280C180018170472DE9F0410C46002675
:1040100049880746012501B90226A288012A00D154
:104020000225208823890028384610D0FFF76FFF2B
:10403000E1883846FFF75FFF23892A463146384634
:1040400000F017F9E1883846BDE8F0417AE700F062
:1040500010F9E1883846FFF775FF23892A46314673
:104060003846FFF754FFE1883846BDE8F04142E7A3
:10407000406B7047806B7047C06B7047006C704737
:1040800010B50A884B88CC881A438B8823431A437F
:104090000B891A434B8989891A430A43A0F84420A3
:1040A00010BD0021018041808180C180018141815A
:1040B00081817047002930F8441F02D041F400414B
:1040C00001E0C1F30E01018070470029818802D010
:1040D00041F0040101E021F00401818070470029D2
:1040E000818802D041F0010101E021F001018180CD
:1040F0007047002A828901D00A4300E08A43828106
:1041000070478182704702460020128A0A4200D01E
:1041100001207047C9430182704702460020138A7C
:1041200092890B4202EA010202D0002A00D001204B
:104130007047C943018270471143A0F84810704787
:10414000002A828901D00A4300E08A4382817047B5
:104150000029818802D041F0080101E021F0080126
:1041600081807047018921F0070101817047028930
:1041700022F070020A430281704700B50346FFF740
:10418000F6FF188940F00700188100BD70B516468B
:104190000D46602904464FF0010231460AD000F076
:1041A00068F829462046FFF7E2FF208940F0070023
:1041B000208170BDFFF7ABFEF3E730B504894FF601
:1041C000FF7505EA03231343E4B20B432343038142
:1041D00030BD10B50446FFF7F0FF208940F07700AE
:1041E000208110BD10B50446FFF7E7FF208940F499
:1041F0008040208110BD828822F0700282808288F7
:104200000A4382807047028922F0070202810289F4
:104210000A4302817047028922F0800202810289EA
:104220000A430281704770B50589048B068C25F01E
:1042300007050D434FF6FC410C4040F201110C43C1
:104240004FF6FF7101EA031126F0220611433143B4
:1042500005810483018470BD0029818802D041F06A
:10426000800101E021F0800181807047A0F85010AA
:10427000704770B5048C24F001040484058B048C11
:104280004FF6FF7606EA0313134325F0F3052B439D
:1042900024F00A020A4342F001010383018470BD45
:1042A000FE4910B588424FF0010101D14C0601E0F2
:1042B0004FF080642046FFF7D2F82046BDE810405A
:1042C0000021FFF7CCB810B50368002223F00203E9
:1042D0000360036843F0010303604FF6FF7300E0DF
:1042E000521C4468E40701D19A42F9D14268D207CE
:1042F0003ED08A79012A02683CD022F08002026016
:10430000CA79012A026838D022F0400202600A7A93
:10431000012A026834D022F0200202604A7A012A7F
:10432000026830D022F0100202608A7A012A026804
:104330002CD022F008020260CA7A012A026828D032
:1043400022F0040202608A78CC78920742EA046282
:104350000C7942EA04424C79098842EA0452491E27
:104360000A43C261016821F001010160002114E0EB
:10437000002010BD42F08002C1E742F04002C5E7D4
:1043800042F02002C9E742F01002CDE742F00802F5
:10439000D1E742F00402D5E7491C4268D20701D0B8
:1043A0009942F9D14068C007E2D1012010BDF0B5B3
:1043B000827A01219140BA4A136843F001031360E5
:1043C000B74B1C331C688C431C60B54D067BB54C49
:1043D0000C35A6B92E688E432E604688C78846EAFB
:1043E0000746877A04EBC707C7F8406606888788C0
:1043F00046EA0746877A04EBC707C7F84466067B98
:10440000012E12D12E680E432E60867A056804EBC9
:10441000C6064FEA3545C6F84056867A456804EB2D
:10442000C6044FEA3545C4F844569D4CC57A241D50
:10443000002D256806D00D432560994C058914345C
:1044400015B104E08D43F7E725688D4325600589A4
:10445000012D02D125680D432560407B012802D142
:10446000186808431860106820F001001060F0BD63
:1044700000218171C171017241728172C1728170BA
:10448000C170032101710221417101210180704736
:1044900083490A6842F001020A600A6843F60E7313
:1044A0009A430A600A6842EA00200860086820F01F
:1044B0000100086070470029016802D041F4803192
:1044C00001E021F48031016070470029016813D0B8
:1044D00041F080010160D0F8841141F48071C0F88E
:1044E0008411D0F8941141F48071C0F89411D0F87F
:1044F000A41141F4807112E021F080010160D0F834
:10450000841121F48071C0F88411D0F8941121F441
:104510008071C0F89411D0F8A41121F48071C0F812
:10452000A411704730B50246002093685B0108D49F
:104530009068000101D5012003E09068C00037D5E4
:10454000022002EB0012D2F8803103F00103C2F81E
:1045500080310B7A73B3D2F880414D681C434B7A9B
:1045600043EAC5031C43C2F880418B7A03F00F0372
:104570008B72D2F8843123F00F03C2F88431D2F861
:1045800084318C7A2343C2F88431CB7ACC6843EAF5
:104590000423C2F88831CB7B096943EA0121C2F8C0
:1045A0008C11D2F8801141F00101C2F8801130BDA8
:1045B000042030BDD2F880314C7A23430C8843EA82
:1045C0004453C2F88031D0E7002221B1012905D03F
:1045D000022906D112E08268334801E0826833483C
:1045E00002403349501A8A4214D00ADCA2B16FF05B
:1045F000806010180FD002280CD10FE082682D487F
:10460000EEE7B0F5007F09D02B49401803D0B0F594
:10461000003F03D000207047022070470120704700
:1046200041B101290AD0022903D1816841F4000176
:1046300081607047816841F08001F9E7816841F449
:104640000041F5E710B500EB0113D3F8B04114F0C9
:1046500004041472D3F8B04145D0E408C2F8044011
:10466000D3F8B04104F002045472D3F8B44104F01A
:104670000F049472D3F8B441240AD474D3F8B84127
:10468000D472D3F8B841240A1473D3F8B841240C77
:104690005473D3F8B841240E94730FE000640040C3
:1046A00000660040006000400300000400030008B2
:1046B00000010008000003100001FFF7D3F8BC411F
:1046C000D473D3F8BC41240A1474D3F8BC41240C2D
:1046D0005474D3F8BC311B0E937439B1016941F0A5
:1046E0002001016110BD640D1460B9E7C16841F09B
:1046F0002001C16010BD21B1016941F020010161BB
:104700007047C16841F02001C16070470246002037
:1047100029B1012902D1106900F003007047D06867
:10472000FAE700234FF6FF7221B1012917D00229C1
:1047300024D03AE0016821F0020141F0010101605A
:1047400000E0521E416801F00301012901D0002A56
:10475000F7D1406800F00300012823D124E001686C
:1047600021F00301016000E0521E4168890701D079
:10477000002AF9D14068800714D115E0016821F0C2
:10478000010141F00201016000E0521E416801F0A8
:104790000301022901D0002AF7D1406800F003008C
:1047A000022801D0002300E0012318467047026868
:1047B000002122F0010242F002020260406800F093
:1047C0000300022800D101210846704703684FF614
:1047D000FF71002223F00203036000E0491E4368DA
:1047E0009B0701D50029F9D14068800700D4012238
:1047F000104670478069C0F302100001704780695D
:10480000000E70478069C0F307407047002A426974
:1048100001D00A4300E08A4342617047024600200B
:1048200011F4700F03D0926904E001207047CB01AE
:1048300004D552680A401103F7D170470B0101D526
:104840009268F7E78B0101D5D268F3E71269F1E7C7
:10485000534A914202D1002181617047C1F3130292
:104860008B0101D5C26070474B0101D502617047D1
:10487000090101D5826070474260704702460020FE
:1048800053690B424AD0B1F5807F3BD013DC082935
:104890002ED007DC012926D0022927D004293DD1BA
:1048A000D0682BE0102925D0202926D0402935D1E9
:1048B0001069102130E0B1F5004F2BD00BDCB1F5C1
:1048C000007F22D0B1F5806F22D0B1F5006F25D1E5
:1048D0009069702120E0B1F5803F11D0B1F5003F23
:1048E0001CD15068E5E790682E4915E0D06802E0D9
:1048F000D068DEE7106903210EE0106908210BE0A3
:104900005068FBE79069012106E09069022103E00D
:10491000906900E05068042100F03BB8704730B562
:10492000082310240422B1F5007F1DD010DC2029BB
:1049300029D007DC012921D0042922D0082900D15F
:10494000C46030BD402920D0B1F5807FF9D10BE0A3
:104950000025B1F5004F06D008DCB1F5806F03D01B
:10496000B1F5006FEDD18561426030BDB1F5803F9A
:104970000DD0B1F5003FF8D1446030BD09498160E8
:1049800030BDC36030BD036130BD046130BD4360E4
:1049900030BD024600200A4200D0012070470000CE
:1049A0007000F0300101010008B5684601F035FBE8
:1049B00008BD08B5684601F069FB08BD08B56A4640
:1049C000082105F0E3FA08BD344810B50078012845
:1049D00007D101F0B0FA05F036FCBDE8104001F057
:1049E000B5BA10BD10B504466FF00400FEF750FADA
:1049F0002B4AE0082B4B10702B4C1968B4FBF1F1DB
:104A0000414318684FF47A73B3FBF0F050804FF0D5
:104A1000E020026942F0020202614161016941F055
:104A20000101016110BDF8B54FF0E026002477695F
:104A30001B49097800FB01F5684601F0EEFAB06900
:104A4000B1698142FCD002D2A0EB010002E0A7EBE9
:104A50000102104404440846AC42F1D3684601F018
:104A600015FBF8BD70B504460C48007878B10F48C6
:104A7000007860B90A4D6888844203D3B4FBF0F033
:104A8000FFF79CFF6888B4FBF0F100FB11444FF482
:104A90007A706043BDE87040C5E70000E90300207C
:104AA000B003002040C4000840420F00E80300208B
:104AB000704746490A885206FCD5C2B28A807047C0
:104AC000F0B50646012187B00846FEF778FC0121C3
:104AD0001020FEF79CFC3E4F072209213846FEF7C6
:104AE000DEFA07220A213846FEF7D9FA4FF4C060F1
:104AF000049002208DF814008DF8150000248DF824
:104B0000164001258DF8175004A93846FEF73EFAE5
:104B1000ADF80440ADF80640ADF80840ADF80C40E3
:104B20000C202A4CADF80A00009669462046FEF794
:104B300062FD01212046FEF7CFFD40212046FEF711
:104B400089FE012240F225512046FEF764FE252011
:104B50008DF8180003208DF819008DF81A008DF8D3
:104B60001B5006A8FEF753F907B0F0BD70B501F071
:104B7000E2F9164C40F225512046FEF76EFEE0B1F8
:104B80002046FEF7D3FDC2B2124801880B0414D4AC
:104B90004C044FF0000304D50A2A0DD141F4004122
:104BA00011E00D2A0DD0C1F30D040B4D491C89B243
:104BB0002A550180C72900D90380BDE8704001F063
:104BC000C5B941F480410180F7E7000000100140C1
:104BD00000000240B4030020683B00201FB5684677
:104BE000FEF758FB019804B010BD10B5FFF7F6FFB3
:104BF00011490A6842F080720A60104900224A6036
:104C00000A6842F001020A60BDE8104000F076B880
:104C10000A484068704710B50446FFF7DFFF0021DF
:104C2000074A0B4605F09BFF02460B462046002133
:104C300005F095FF10BD0000FCED00E0001000E065
:104C400040420F0010B500F0DFF80446102169481B
:104C500000F0DAF92046BDE8104000F0D9B8664906
:104C600010B500200860FFF7C0FFBDE81040E9E77D
:104C7000FEE770B505460C000ED075B100F0C4F823
:104C8000064610225B49284600F0B6FC304600F08C
:104C9000BFF80020208070BDFEE70A20088070BDAC
:104CA00070B50C00054612D095B1102100F096FCAD
:104CB000102810D200F0A8F80646102229464D48C8
:104CC00000F09AFC304600F0A3F8002005E0FEE773
:104CD0000A20088070BD4FF47A70208070BDFFF705
:104CE00097BF704720B14449096811B1002202E022
:104CF000FEE74FF4FA620280084670473E490860BA
:104D0000704710B500F08BF8183810BD10B500F0E2
:104D100086F8103810BD00F082B8F0B50C0E0B0C00
:104D20000F0A0025354AD0F1FF368D411BD24FF6D0
:104D3000FF75D0F1FF368D410AD26FF07F45D0F17B
:104D4000FF308D4101D2105DF0BDD05C0830F0BD68
:104D5000FF23D0F1FF308B4102D2D05D1030F0BD87
:104D6000505C1830F0BD4FF6FF740023241A8B41BD
:104D700011D26FF07F440023241A8B4105D2000E1C
:104D800040EA0120105C2030F0BD000C40EA0140F8
:104D9000105C2830F0BD0023D0F1FF048B4105D218
:104DA000000A40EA0160105C3030F0BD105C383021
:104DB000F0BD08B100F036B80820704708B100F027
:104DC00031B81020704708B100F02CB8202070478F
:104DD00000B550EA01020BD0C243521CCB4343F151
:104DE000000310401940FFF798FFC0F13F0000BDDD
:104DF000402000BD303C0020B80300204CC2000819
:104E000072B6704762B67047EFF3108072B67047A3
:104E100080F31088704730BF704720BF7047B0FAEA
:104E200080F0704790FAA0F0B0FA80F0704790FAE6
:104E3000A0F07047A0F14101192902D96138192861
:104E400001D80120704700207047A0F141011929C5
:104E500005D92039192902D93038092801D801206B
:104E60007047002070476138192801D80120704729
:104E7000002070474138192801D8012070470020D0
:104E800070473038092801D801207047002070474A
:104E90003038072801D80120704700207047A0F162
:104EA0003001092905D91139052902D961380528A8
:104EB00001D80120704700207047202803D009281E
:104EC00001D0002070470120704720280BD00D280A
:104ED00009D00A2807D00C2805D0092803D00B28B0
:104EE00001D0002070470120704720385E2801D88B
:104EF000012070470020704721385D2801D801202B
:104F0000704700207047A0F120015E2916D82028A4
:104F100014D00D2812D00A2810D00C280ED0092841
:104F20000CD00B280AD021391A2907D320391A2985
:104F300004D330380A2801D301207047002070477D
:104F400041B2002901DB1F2803D97F2801D00020AE
:104F5000704701207047A0F14101192900D8203085
:104F6000C0B27047A0F16101192900D82038C0B241
:104F7000704700B50B46FFF7F5FF02461846FFF7EE
:104F8000F1FF824201D1012000BD002000BD0000E0
:104F9000FD48FE490246C0E9001200218160C1605F
:104FA000016141618161C16101620163C16241626C
:104FB00000F148018163C1634FF480610164416481
:104FC000F3480260704710B500231C46641C41EA98
:104FD0000323042CFAD310F0030405D10BE000BF27
:104FE000521E00F8011B641C002A0CD0042CF7D3BD
:104FF00001E008C0121F042AFBD202E000F8011BE6
:10500000521E002AFAD110BD0A460021DBE730B457
:10501000814202D930BC00F0ADBD10441144401EA5
:10502000491E431A042B26D300F0030301F00304A6
:10503000A34220D1032B08D10AE000BF5B1E11F868
:10504000014900F801495BB2521E0AB1002BF5DAA2
:10505000C01EC91E05E000BF51F8043940F80439EC
:10506000121F042AF8D2C01CC91C04E011F801392F
:1050700000F80139521E002AF8D130BC704770B5D3
:105080000346CAB17BB371B313441144012003F04A
:10509000030401F00305AC421FD1DCB113F8015D3C
:1050A00011F8016DB54200D00020521E641E012887
:1050B00003D1002AF1D10DE0012070BD53F8044D59
:1050C00051F8045DAC4202D00020121F0EE0121F06
:1050D00001280BD1042AF1D208E013F8014D11F890
:1050E000015DAC4201D0002070BD521E0128FBD1F1
:1050F000002AF2D170BD30B5C36BB3FBF2F402FBF2
:1051000014340CB1121B00E00022446C11448C4298
:1051100001D2002030BD5D18611AC5631A44416494
:10512000104630BD10B5B0FBF3F403FB140000B122
:10513000181AB2FBF3F403FB14240CB11B1B00E0A0
:10514000002310441A44491E02FB010010BD2DE942
:10515000FC5F1F4614008A46834600D101AC002044
:10516000894E2060FFF750FE009053465A460121B9
:10517000D6F84480F06BFFF7D5FF054642F2E2799E
:10518000404506D90098FFF743FEA5EB08002060D4
:1051900012E0524659463046FFF7ADFF0600009830
:1051A00007D0FFF735FE42F2107038803046BDE878
:1051B000FC9FFFF72DFE2560A7F800900020F6E782
:1051C0002DE9F04116460C460546FFF71DFE6B68BB
:1051D000996B01B96C4BDF6B5D6CFFF719FE012C0D
:1051E00006D9B7FBF4F004FB107000B1201A2D1A99
:1051F00042F2107030802846BDE8F0810A46014630
:105200006148DDE7B8B1634A026000224260826013
:10521000C260026142618261C26102628262426373
:105220000263C26242628263C2630264426442F207
:1052300010700880704742F21170FAE72DE9FF4FB5
:105240008BB09346DDE91A798A46044607B90AAF5E
:105250000020386049462046FFF7D4FFB9F8001017
:10526000A1F51C50103856D14948006888B100207B
:10527000DFF814810290FFF7C7FD0790BAF1000034
:105280000AD000210891424900EB0B02521E0E6821
:1052900046E042F2E7713CE0CDF82080D8F83CB01F
:1052A000042346461A4658460E99FFF73BFF0390E3
:1052B00058440490DDE918230E99FFF733FF834625
:1052C0000398454658440290D8F84410009188420B
:1052D00062D90798FFF79CFD00990298401A3BE0BD
:1052E000B16B514505D1356C5D4502D1350019D002
:1052F0001FE0336C0B445B1E8A4213D3884203D9F0
:105300009A4201D9984209D80798FFF781FD42F2E5
:105310007F71A9F800100FB0BDE8F08F0896F6680D
:10532000002EDDD1C4F840B0C4E90EAA2546C4F869
:1053300044B004231A46D8F83C000E99FFF7F2FE59
:10534000D8F8441083460091884209D90798FFF79E
:105350005FFD0099ABEB0100386042F2E27087E03C
:10536000E86B0490DDE918230E99FFF7DBFE696C0A
:105370008346009188420FD90798FFF749FD0099AD
:10538000ABEB01004BE007E0403C002048454150BA
:10539000BC0300204E4F4E450E980422800001466B
:1053A00003904046FFF7A7FE009008B1002019E0E7
:1053B000D8F844400798FFF72BFDBAF1000F04D04E
:1053C0000398A042C8D9001BC6E70298F9E7DDE9B7
:1053D00018122846FFF78FFE88B1009941F828007F
:1053E00008F101000E9980468842F0D3A5421FD1F2
:1053F0000898C4E902060898A8B1C46015E0EE6BED
:105400006C6C0798FFF704FD0E98DDE91823A0EBFC
:1054100008013046FFF786FEA04200D9001B386025
:1054200042F2D87024E06B4804603EB1B46005E0FD
:105430006869C4E904506C6100B104616648C4E95C
:1054400000050498A06104985844401EE06100984B
:10545000C4F828B0206219986063189820630E98E9
:10546000E0620E9860620798FFF7D2FC42F210707B
:10547000A9F800004FE770B50C460546FFF7C4FCDD
:105480006D6AFFF7C5FC42F210702080284670BD9F
:1054900070B515460446FFF7B7FC0146606A50B187
:1054A000E26A90420DD90846FFF7B2FC42F29570CD
:1054B0002880002070BD0846FFF7AAFC42F2DE708B
:1054C000F6E7401E6062226A52F820400846FFF765
:1054D0009FFC42F210702880204670BD70B51446C3
:1054E0000E460546FFF790FCEA6A911B491E42F200
:1054F00095768A4202D96A6A8A4204D9FFF788FC03
:105500002680002070BD2A6A52F82150FFF780FCE7
:1055100042F210702080284670BD2DE9F0411546FA
:105520000E460446FFF770FCE26A616A0746914244
:1055300004D3FFF76DFC42F2DD701BE00B46206ADE
:105540000AE000BF50F823C0B44504D150F8211040
:1055500040F8231002E05B1C9A42F3D8D4E908011A
:1055600040F82160606A401C60623846FFF750FCDA
:1055700042F2107028803FE62DE9F04114460F46B4
:1055800005464FF0FF36FFF73FFC0246E96A686ABE
:10559000884215D31046FFF73BFC42F2DD7016E05F
:1055A0002B6A53F82030BB4209D10D1A10466D1EEC
:1055B000FFF72EFC42F21070208028461CE6401CAB
:1055C0008142EDD81046FFF723FC42F2887020801C
:1055D000304611E6BC030020504F4F4C002201E042
:1055E000401C521C18B103780BB18A42F8D3104604
:1055F00070474FF0FF31F1E730B5002812D091B17C
:105600000346002406E000BF491C03F8015B641C4C
:105610004BB141B10D780DB19442F5D3944201D212
:105620000021197030BD002030BD4FF0FF32E3E79C
:1056300030B500280BD049B1002A08D0034601E05C
:105640005B1C03D01C78002CFAD107E0002030BD91
:1056500003F8015B491C641C002BF7D00029F5D02E
:105660000D780DB19442F3D30021197030BD4FF085
:10567000FF32DDE7F0B51AB328B1F9B10346401C9B
:105680004C1C002507E0D9B108781EE0401C491CDD
:105690005B1C641C6D1C1E780F78BE4204D11EB1C9
:1056A00010B10CB19542F1D3954209D0F2B2F9B2E2
:1056B0008A4201D0701AF0BD16B118B10078F0BD61
:1056C0000020F0BD002CFBD020784042F0BD4FF010
:1056D000FF32CFE72DE9F0475FEA020A3BD078B10D
:1056E00089B10646451C88464C1C0078FFF733FC00
:1056F000074698F80000FFF72EFC4FF0000914E071
:1057000049B308782CE0007821E000BF08F10108D7
:1057100009F1010916F8010F641C6D1CFFF71BFC51
:10572000074698F80000FFF716FC874205D131784C
:1057300019B115B10CB1D145E8D3D1450BD0874291
:1057400002D0381ABDE8F0872FB135B12878BDE80E
:10575000F047FFF700BC0020F4E7002CFBD02078D6
:10576000FFF7F9FB4042EDE74FF0FF32B2E710B52B
:10577000002812D081B1002303E0401C03F1010393
:105780000BD004781CB1944201D08B42F5D38B42EC
:1057900002D2E1B2914200D0002010BD0A464FF083
:1057A000FF31E4E730B5154604000FD071B1491E52
:1057B000FFF714FF20180AD000E0401EA04202D0DC
:1057C0000178A942F9D10178A94200D0002030BD6A
:1057D0000A464FF0FF31E5E730B5002803D00BB1A2
:1057E000044607E0002030BD8D4200D122705B1ED0
:1057F000641CF8D02578002DF5D0002BF4D130BDF5
:105800004FF0FF33E8E72DE9F0410F46060028D0BE
:105810003FB332B3501C01D0511C01E04FF0FF31B7
:105820000C4611463046FFF7D9FE0546214638465C
:10583000FFF7D4FE040017D0AC4212D8701911D073
:1058400038190FD0A5EB04085FF0000506EB050C36
:10585000224639466046FFF70DFF38B16D1C4545BD
:10586000F4D90020BDE8F0813046FBE76046F9E757
:105870004FF0FF32C7E72DE9FF5F8246DDF8448035
:105880000E9C16460D465FEA080060D00027B94618
:1058900005B90127B01E232800D30127FCB12046FB
:1058A000FFF723FB012818D1302C18D0A4F13000C9
:1058B000C1B20F98012802D0A4F1410001E0A4F187
:1058C0006100C0B20A2E02D8B14206D307E00A290D
:1058D00003D3A6F10A01884201D2012725E04246FE
:1058E0001FBB5146012003E0B1FBF6F1401CC0B2E2
:1058F000B142F9D20399012900D000214318AB42EB
:10590000EBD84FF0000BA84200D328463CB1281A30
:10591000401A10F0FF0F04D0302C04D001E00844EE
:10592000C5B2002000E001208146109908EB050077
:1059300009B1002101700021401E04E057B13F224F
:1059400000F80129491CA942F8D377B3002004B01C
:10595000BDE8F09FBAF1000204D119B1039A012AFF
:1059600014D023E0B2FBF6F306FB13A2D2B20A2A4C
:1059700001D2303205E00F9B012B01D0373200E01D
:105980005732BAFBF6FA00F80129DBE759EA0B02B5
:1059900005D0B9F1000F09D06A1E914206D12D221F
:1059A00000F801294FF0010BCCE704E0002CC9D02E
:1059B00000F80149C6E74046C9E77FB50DF1200C64
:1059C0009CE870008DE878000023FFF754FF04B0D6
:1059D00070BD2DE9FF411C46DDE90A650C9F0028DA
:1059E00002DA4042012300E00023CDE90046CDE980
:1059F0000257FFF740FF04B034E72DE9FF5F9846F8
:105A0000DDF8389015460F00064600D102AFB9F117
:105A1000000F3E6001D10DF10C09002189F8001042
:105A20001EB1012D01D0242D01D900208FE734466D
:105A3000307801E014F8010FFFF747FA0128F9D098
:105A400020782B2803D02D2805D0002008E04FF027
:105A50000008641C05E0B8F1010F00D1641C0120AE
:105A60008046019425B1082D11D0102D22D112E0CD
:105A70002078302801D00A251CE014F8010F58289E
:105A800003D0782801D0082514E010250CE02078F8
:105A900030280ED00EE0207830280BD114F8010FFA
:105AA000582801D0782805D16078FFF7F8F9012847
:105AB00000D1641C00208346CDF8000094F800A0BB
:105AC0005046FFF7C2F9012827D15046FFF7D9F910
:105AD00001280DD05046FFF7C6F901280BD0AAF1D6
