:020000040800F2
:1000000040350020C9050008E9030008EB0300089B
:10001000ED030008EF030008F103000800000000F2
:10002000000000000000000000000000F3030008D2
:10003000F503000800000000EB900008CD21000847
:10004000E3050008E3050008E3050008E3050008F0
:10005000E3050008E3050008E3050008E3050008E0
:10006000E3050008E3050008E3050008E3050008D0
:10007000E3050008E3050008E3050008E3050008C0
:10008000E3050008E3050008E3050008E3050008B0
:100090003B840008E3050008E3050008E3050008C9
:1000A000E3050008E3050008E3050008E305000890
:1000B0009D880008E3050008E3050008E305000843
:1000C000E3050008E3050008E3050008E305000870
:1000D000E305000871230008E3050008E3050008B4
:1000E000E3050008E3050008E3050008E305000850
:1000F000E3050008E3050008E3050008E305000840
:10010000E3050008E3050008E3050008E30500082F
:10011000E3050008E3050008E3050008E30500081F
:10012000E3050008E3050008E3050008E30500080F
:10013000E3050008E3050008E3050008E3050008FF
:10014000E3050008E3050008E3050008E3050008EF
:10015000E3050008E3050008E3050008E3050008DF
:10016000E3050008E3050008E3050008E3050008CF
:10017000E3050008E3050008E3050008E3050008BF
:10018000E3050008E305000800F002F800F03CF881
:100190000AA090E8000C82448344AAF10107DA45E2
:1001A00001D100F031F8AFF2090EBAE80F0013F0F8
:1001B000010F18BFFB1A43F0010318476C940000AD
:1001C0008C940000103A24BF78C878C1FAD852073E
:1001D00024BF30C830C144BF04680C6070470000C1
:1001E0000023002400250026103A28BF78C1FBD840
:1001F000520728BF30C148BF0B6070471FB509F0D8
:10020000F5F81FBD10B510BD08F022FF1146FFF72D
:10021000F5FF00F067F808F040FF03B4FFF7F2FFC6
:1002200003BC02F047F800002DE9F0438BB002F068
:1002300018F902F0EBF9554D2978491C297002F0A4
:10024000E9F900240327CDE9064709AE4FF00C0970
:100250004F4A089605940A208DE805024FF0800861
:10026000CDE9038423464B4A4BA14F4806F02EFAB2
:10027000CDE906474D4A089605940D208DE8050204
:100280004948CDE903840023494A4AA1C43006F015
:100290001DFACDE906474A4A089605940F208DE8D5
:1002A0000502CDE903840023464A47A1494806F0E8
:1002B0000DFA02F0ABF92978491E11F0FF012970FF
:1002C00007D14549098821B102F0A4F903F084FE61
:1002D00001E002F09FF909A9002006F0D8FA0BB05E
:1002E000BDE8F08330B58BB0A82001F07DFF4FF45E
:1002F000A06000F089F94FF4E13001F0E3FF08F06D
:10030000C9FD08F02DF808F033F908F025FA08F0D7
:10031000EDFA08F014FD09A803F07EF902F076F971
:100320001A4C2178491C217002F074F9002006ABA8
:1003300009AA0321059083E8070080220C23CDE958
:100340000232244D0490C4350346AFF22312CDE9A6
:10035000001522A1A5F5447006F0B8F902F056F98F
:100360002178491E11F0FF01217007D11A4909882F
:1003700021B102F04FF903F02FFE01E002F04AF93B
:1003800009A803F070FB0BB0002030BDA4000020D2
:100390003006002075050008436F6E74726F6C5F45
:1003A0007461736B00000000E4010020300800203D
:1003B000A50500084C6F6F705F7461736B000000DF
:1003C000300A0020B105000843617463685F7461FE
:1003D000736B00006C03002068000020537461728E
:1003E000745F7461736B00007047FEE7FEE7FEE721
:1003F000FEE77047704700000CB50020544901909B
:1004000000900A6842F480320A604FF4A0430A6800
:1004100002F400320092019A521C0192009A12B921
:10042000019A9A42F3D10A68920334D501200090D0
:1004300047484030026842F08052026045480268F6
:1004400042F440420260424808300268026002689A
:1004500042F400420260026842F4A0520260031FAC
:100460003D4A1A600A6842F080720A600A68920186
:10047000FCD53A4A40F205711160016821F0030190
:100480000160016841F0020101600168C1F381016E
:100490000229FAD10CBD00900CBD314810B501689D
:1004A00041F4700101602A48016841F001010160D6
:1004B000274A00210832116002682A4B1A40026064
:1004C000031D294A1A60026822F480220260204833
:1004D0000C300160FFF790FF21494FF00060803938
:1004E000086010BD70B51A4C083420681F4A10F01F
:1004F0000C011F4804D05510042903D0082903D04B
:1005000002601BE0056019E01149091D0B68C3F387
:1005100080560B6803F03F0316B1B5FBF3F201E020
:10052000B2FBF3F20B680968C3F388135A43C1F3B3
:100530000141491C4900B2FBF1F1016021680C4AFC
:10054000C1F30311121D515C0268CA40026070BD04
:10055000003802400070004008544007003C024050
:1005600088ED00E0FFFFF6FE103000240024F400C8
:10057000000000202DED028B104CDFED118A9FED65
:10058000118A2046F0EE680AB0EE480AB0EE601A12
:1005900008F0ACFC08F0B2FA08F0C3FC052001F04A
:1005A00063FEEEE74FF47A74204601F05DFEFBE750
:1005B0004FF47A74204601F057FEFBE70C0D002043
:1005C00000000000000048430948804709480047F0
:1005D000FEE7FEE7FEE7FEE7FEE7FEE7FEE7FEE7F3
:1005E000FEE7FEE704480549054A064B7047000050
:1005F0009B04000889010008402F0020403500209E
:100600004031002040310020284908432849086033
:10061000704730B50F22C47801780123FCB1244C17
:10062000246801F1E02104F4E064C4F5E064C4F35B
:100630000724C4F10405E2404478AC4085781540B5
:1006400025432A0181F80024007800F01F018B4027
:100650004009800000F1E020C0F8003130BD01F019
:100660001F0083404809800000F1E020C0F880317D
:1006700030BD104A114001430D48001F0160704712
:100680000B4A121D0029116801D0014300E081438B
:10069000116070474FF0E0210428086903D020F072
:1006A00004000861704740F00400FAE70000FA0512
:1006B0000CED00E080FFFF1F824910B5884206D193
:1006C0000121084600F0AFFA002101205BE07E49DD
:1006D000884206D10121022000F0A5FA0021022063
:1006E00051E07A49884206D10121042000F09BFAAA
:1006F0000021042047E07649884206D101210820E4
:1007000000F091FA002108203DE07249884206D1AC
:100710000121102000F087FA0021102033E06E49FB
:10072000884206D10121202000F07DFA00212020FE
:1007300029E06A49884206D10121402000F073FA7D
:10074000002140201FE06649884206D10121802017
:1007500000F069FA0021802015E06249884202D148
:10076000012184150AE06049884202D10121441523
:1007700004E05E4988420AD101210415204600F0B8
:1007800052FA00212046BDE8104000F04CBA10BDDE
:10079000F0B50023012403270D6804FA03F2154085
:1007A000954242D1D0F800C05E0007FA06F52CEA67
:1007B000050CC0F800C091F804C0D0F800E00CFAB5
:1007C00006FC4CEA0E0CC0F800C091F804C0BCF165
:1007D000010F02D0BCF1020F1FD1D0F808C02CEAE3
:1007E000050CC0F808C091F805C0D0F808E00CFA74
:1007F00006FC4CEA0E0CC0F808C0D0F804C02CEA85
:10080000020CC0F804C0426891F806C00CFA03FC60
:100810001FFA8CFC42EA0C024260C268AA43C26022
:10082000CA79C568B2402A43C2605B1C102BB3D39F
:10083000F0BD4FF6FF7101600021017141718171BE
:10084000C171704708B541F480320092C261C16144
:100850000099C161C169C069009008BD02460020CD
:1008600012690A4200D001207047006980B27047C7
:100870000246002052690A4200D0012070474069B8
:1008800080B2704701837047418370470AB101838A
:100890007047418370474161704742694A404261F5
:1008A00070474B07DB0E9A40C90810B500EB81007A
:1008B000016A0F249C40A1430162016A1143016255
:1008C00010BD000000000240000402400008024089
:1008D000000C0240001002400014024000180240C8
:1008E000001C024000200240002402400028024078
:1008F000F848016841F001010160F64A0021083220
:1009000011600268F44B1A400260031DF34A1A603A
:10091000F04BF34A84331A60F04A103A1B1D1A60F8
:10092000026822F480220260EA480C300160181D3F
:1009300001607047E7490022891C0A7008707047FF
:1009400002460020510901290CD002290CD0E149AE
:100950007431096802F01F02012393400B4200D05A
:1009600001207047DB49F4E7DA497031F1E718B547
:1009700000204FF4A04400903120FFF7E1FF0099E0
:10098000491C0091A14201D00028F5D03120FFF789
:10099000D7FF002800D0012018BDCE490A6822F0F8
:1009A000F80242EAC00008607047CE49086070470C
:1009B000C849002270310A700A70012802D0042848
:1009C00001D1052008707047C7490860704741EAA7
:1009D00082115A0810B5C54B029C03EB0242114329
:1009E000014341EA0460BB49091D086010BDBD49CF
:1009F00008667047800140EA0170B649843108609A
:100A00007047B84988667047800140EA0160B14983
:100A100040EA0270883108607047B2490867704741
:100A2000B049C8647047AB4A08321368084323F0E2
:100A3000EC63184310607047A64A083213680843F5
:100A400023F07843184310607047A24A08321168B7
:100A500021F003010143116070479E48083000688F
:100A600000F00C0070479B4A0832116821F0F00139
:100A7000014311607047974A0832116821F4E05130
:100A8000014311607047934908310A6822F46042BB
:100A900042EAC0000860704770B58E4A083211689B
:100AA000934C11F00C0104D06610042903D00829DE
:100AB00003D004601BE0066019E08649091D0B683D
:100AC000C3F380550B6803F03F0315B1B6FBF3F396
:100AD00001E0B4FBF3F30C680968C4F388146343C2
:100AE000C1F30141491C4900B3FBF1F101601168F8
:100AF0000F2303EA11117F4B5C5C0168E140416008
:100B00001468072505EA94241C5D21FA04F4846026
:100B1000126805EA52329A5CD140C16070BDC0F3E0
:100B20000121032908D16B4A0832116821F4F81316
:100B30007149014019431160664970310A68C0F378
:100B40000B0002430A6070476749443908607047E8
:100B500065494039086070476249C1F85C017047D7
:100B60005C4A8C321168401E21F01F010143116064
:100B7000704758498C310A686FF0FF0322F4F8522D
:100B800003EB0020104308607047524A8C32116812
:100B900021F440110143116070474E4A8C321168B4
:100BA00021F440010143116070474A4A8C321168B8
:100BB00021F440310143116070475049C1F8E00110
:100BC0007047444A30320029116801D0014300E0E7
:100BD0008143116070473F4A34320029116801D0C7
:100BE000014300E08143116070473A4A38320029DE
:100BF000116801D0014300E0814311607047354A1C
:100C000040320029116801D0014300E081431160A6
:100C10007047304A44320029116801D0014300E096
:100C20008143116070472B4A10320029116801D0AE
:100C3000014300E0814311607047264A14320029C5
:100C4000116801D0014300E0814311607047214ADF
:100C500018320029116801D0014300E0814311607E
:100C600070471C4A20320029116801D0014300E07E
:100C7000814311607047174A24320029116801D05E
:100C8000014300E0814311607047124A503200294D
:100C9000116801D0014300E08143116070470D4AA3
:100CA00054320029116801D0014300E081431160F2
:100CB0007047084A58320029116801D0014300E00A
:100CC000814311607047034A60320029116817D0D0
:100CD000014316E000380240FFFFF6EA103000241E
:100CE0000030002000004742800E47420000FFFF16
:100CF0000024F40014000020FFFCFF0F0010474206
:100D0000814311607047194A0029116801D00143DD
:100D100000E081431160704714490C3101280868D4
:100D200003D020F008000860704740F00800FAE7A0
:100D30000E4A573A0029117801D0014300E081435F
:100D40001170704709481030016841F080710160EE
:100D500070470146054A0020583A12680A4200D0FE
:100D600001207047014956390870704764380240C5
:100D7000CD4910B5884206D101211020FFF77BFF35
:100D80000021102020E0C949884202D101214C04F1
:100D900029E0C749884202D101218C0423E0C549DA
:100DA000884202D10121CC041DE0C349884202D10E
:100DB00001210C0517E0C149884209D101212020F9
:100DC000FFF759FF00212020BDE81040FFF753BF77
:100DD000BB49884202D101218C0704E0B94988420D
:100DE0000AD1012144052046FFF73BFF2046BDE81C
:100DF00010400021FFF735BF10BD7FB50446008AC3
:100E00000D4620F44051E88808432082A08941F231
:100E10000C618843A9882A8911436A8902431143D6
:100E2000A181A08A20F44071A8890843A082684665
:100E3000FFF732FE9C48844202D0A048844201D190
:100E4000039800E00298A189090400EBC00101EBBE
:100E50000010296801D5490000E08900B0FBF1F2DB
:100E60006420B2FBF0F109010B096FF018056B4328
:100E700002EB8302A3891D044FF0320306D503EB76
:100E8000C202B2FBF0F000F0070005E003EB021233
:100E9000B2FBF0F000F00F00084320817FBD4FF45B
:100EA0001651016000218180C18001810C224281A4
:100EB0008181704710B5028A4C8822F470630A88D9
:100EC00022438C88C9880C4322431A43028210BDF6
:100ED0000021018041808180C18070470029818983
:100EE00002D041F4005101E021F4005181817047AA
:100EF000028B02F47F420283028B0A430283704713
:100F00000029818902D041F4004101E0C1F30E01C2
:100F1000818170470029818A02D041F4006101E09B
:100F200021F4006181827047C1F30801818070471C
:100F30008088C0F308007047028A22F00F02028204
:100F4000028A0A43028270470029818902D041F057
:100F5000020101E021F0020181817047828922F4BF
:100F60000062828182890A4382817047028A22F06C
:100F700020020282028A0A43028270470029018A03
:100F800002D041F4804101E021F4804101827047A8
:100F9000818941F00101818170470029818A02D055
:100FA00041F0080101E021F0080181827047028BC5
:100FB000D2B20283028B42EA0121018370470029E9
:100FC000818A02D041F0200101E021F020018182DC
:100FD00070470029818A02D041F0100101E021F020
:100FE000100181827047828A22F004028282828A02
:100FF0000A43828270470029818A02D041F00201AF
:1010000001E021F0020181827047002A828A01D02A
:101010000A4300E08A438282704710B5C1F342134D
:1010200001F01F040121A140012B07D0022B07D0A2
:101030001430002A026805D00A4304E00C30F8E7B7
:101040001030F6E78A43026010BD02460020128885
:101050000A4200D001207047C9430180704730B573
:1010600001F01F0201240025C1F3421304FA02F229
:10107000012B0FD0022B0FD0838A4FEA1121008859
:10108000134204FA01F400EA040001D000B1012582
:10109000284630BD8389F0E7038AEEE70A0A01217A
:1010A0009140C94301807047001001400044004056
:1010B00000480040004C0040005000400014014037
:1010C00000780040007C0040FE4910B5884206D1FF
:1010D00001210846FFF7CFFD002101205BE0B0F1C0
:1010E000804F09D0F84988420DD101210220FFF735
:1010F000B8FD0021022070E001210846FFF7B1FD94
:101100000021012069E0F149884206D10121042033
:10111000FFF7A7FD002104205FE0ED49884206D1DA
:1011200001210820FFF79DFD0021082055E0E94935
:10113000884206D101211020FFF793FD00211020E5
:101140004BE0E549884206D101212020FFF789FDC7
:101150000021202041E0E149884206D101210220FE
:10116000FFF789FD0021022015E0DD49884202D108
:1011700001210C040AE0DB49884202D101214C0420
:1011800004E0D94988420AD101218C042046FFF7A6
:1011900072FD00212046BDE81040FFF76CBDD34929
:1011A000884206D101214020FFF75BFD002140204D
:1011B00013E0CF49884206D101218020FFF751FD7D
:1011C0000021802009E0CB4988420AD18415012101
:1011D0002046FFF746FD00212046BDE81040FFF7FE
:1011E00040BD10BD30B50288B64BBC4C98420DD006
:1011F000A0420BD0B0F1804F08D0B34DA84205D02B
:10120000B24DA84202D0B24DA84203D122F07005DF
:101210004A882A43AF4DA84206D0AF4DA84203D01A
:1012200022F440750A892A4302804A68C2620A8809
:101230000285984201D0A04201D1897A018601211C
:10124000818230BD4FF0FF3141600021018001817A
:10125000418081727047018582827047028822F046
:1012600070020A430280704741627047C162704752
:10127000406A7047008D70470029018802D041F014
:10128000020101E021F0020101807047002901887C
:1012900002D041F0040101E021F004010180704717
:1012A0000029018802D041F0800101E021F0800195
:1012B00001807047028822F00802028002880A43F7
:1012C00002807047028822F44072028002880A433A
:1012D000028070470029018802D041F0010101E03D
:1012E00021F001010180704730B5028C22F001022B
:1012F0000284028C8388048B22F0020224F073059E
:101300000C882C438D8915434A882A436D4DA84289
:1013100002D0724DA8420DD122F00805CA8923F4EB
:1013200040732A4322F004058A882A430D8A1D430C
:101330004B8A2B438380048389684163028430BDD8
:1013400070B5028C22F010020284028C8488038B18
:101350000D8823F4E6464FF6FF7303EA052535436F
:101360008E8922F0200203EA061616434A8803EA11
:1013700002123243534EB04202D0584EB04215D101
:1013800022F08006CA8924F4406403EA0212324340
:1013900022F040068A8803EA021232430E8A03EAE8
:1013A000860626434C8A03EA8404344384800583FA
:1013B00089688163028470BD70B5028C22F48072EA
:1013C0000284028C8488838B0D8823F073031D4371
:1013D00022F400738E894FF6FF7202EA06261E433E
:1013E0004B8802EA03233343364EB04202D03B4ED1
:1013F000B04215D123F40066CB8924F4405402EAAC
:101400000323334323F480668B8802EA03233343A8
:101410000E8A02EA061626434C8A02EA0414344372
:10142000848085838968C163038470BD70B5028C34
:1014300022F480520284048C8288838B0D8823F4EA
:10144000E6464FF6FF7303EA0525354324F40056BC
:101450008C8903EA043434434E8803EA0636264373
:10146000184CA04202D01D4CA04205D122F4804469
:101470000A8A03EA82122243828085838968016492
:10148000068470BD0021018041808180816081815E
:10149000C18101824182704730B50124058C00F181
:1014A00018038C40A543058431B308292CD0091FAB
:1014B000C1F34E001844016848F6FF7319400160FB
:1014C00001681AE0000001400004004000080040EC
:1014D000000C0040001000400014004000040140D7
:1014E0000040014000440140004801400018004015
:1014F000001C00400020004006E04FF6FF7303EAA6
:1015000002221143016030BD03EB510001684FF628
:101510008F73194001600168F3E74163704781638D
:101520007047C163704701647047028B22F07002FC
:101530000A4302837047028B4FF6FF7322F4E042A6
:1015400003EA0121114301837047828B22F070026C
:101550000A4382837047828B4FF6FF7322F4E04286
:1015600003EA0121114381837047028B22F00802B4
:101570000A4302837047028B4FF6FF7322F4006226
:1015800003EA0121114301837047828B22F0080294
:101590000A4382837047828B4FF6FF7322F4006206
:1015A00003EA0121114381837047028B22F0040278
:1015B0000A4302837047028B4FF6FF7322F4806266
:1015C00003EA0121114301837047828B22F0040258
:1015D0000A4382837047828B4FF6FF7322F4806246
:1015E00003EA0121114381837047028B22F08002BC
:1015F0000A4302837047028B4FF6FF73C2F30E0259
:1016000003EA0121114301837047828B22F080029B
:101610000A4382837047828B4FF6FF73C2F30E0238
:1016200003EA0121114381837047028C22F00202F8
:101630000A4302847047028C22F008020A430284A3
:101640007047028C4FF6FF7322F0200203EA01116B
:10165000114301847047028C4FF6FF7322F0800221
:1016600003EA0111114301847047028C4FF6FF73A6
:1016700022F4007203EA0121114301847047028CB5
:101680004FF6FF7322F4006203EA01211143018443
:101690007047028C4FF6FF7322F4005203EA0131C7
:1016A00011430184704710B50123048C8B409C4387
:1016B0000484038C8A401343038410BD10B50423B3
:1016C000048C8B409C430484038C8A401343038422
:1016D00010BD828B22F440628283828B4FF6FF73AF
:1016E00003EA01210A4382837047828B22F00C02B5
:1016F0008283828B0A4382837047028B22F440628A
:101700000283028B4FF6FF7303EA01210A4302832F
:101710007047F0B5048C24F010040484078B068C09
:101720004FF6FF7404EA011527F4734704EA033106
:10173000394304EA02220A4326F0A001294341F07A
:10174000100102830184F0BD028B22F00C0202839F
:10175000028B0A43028370472DE9F0410D460E8843
:101760004988AA882B8904460EB3042E26D0082E59
:10177000268C4FF6FF7028D026F480562684A78B3F
:10178000268C00EA022200EA013127F473473A432B
:1017900000EA0330104326F420420A4342F4805109
:1017A000A0832184E9882046BDE8F04191E700F05C
:1017B00062F9E9882046BDE8F041C5E7FFF7A9FFD7
:1017C000E9882046BDE8F04197E726F48076268434
:1017D000A78B268C00EA012100EA0310104327F0B2
:1017E000F307384326F420620A4342F48071A08351
:1017F0002184E9882046BDE8F04176E70021018098
:10180000418001228280C180018170472DE9F04131
:101810000C46002649880746012501B90226A28800
:10182000012A00D10225208823890028384610D0BB
:10183000FFF76FFFE1883846FFF75FFF23892A46ED
:101840003146384600F017F9E1883846BDE8F041E6
:101850007AE700F010F9E1883846FFF775FF238931
:101860002A4631463846FFF754FFE1883846BDE83E
:10187000F04142E7406B7047806B7047C06B704728
:10188000006C704710B50A884B88CC881A438B8847
:1018900023431A430B891A434B8989891A430A4304
:1018A000A0F8442010BD0021018041808180C180CA
:1018B0000181418181817047002930F8441F02D0A5
:1018C00041F4004101E0C1F30E010180704700299D
:1018D000818802D041F0040101E021F004018180FF
:1018E00070470029818802D041F0010101E021F018
:1018F000010181807047002A828901D00A4300E0FB
:101900008A43828170478182704702460020128A92
:101910000A4200D001207047C94301827047024645
:101920000020138A92890B4202EA010202D0002AA7
:1019300000D001207047C943018270471143A0F8CD
:1019400048107047002A828901D00A4300E08A4388
:10195000828170470029818802D041F0080101E0AE
:1019600021F0080181807047018921F00701018180
:101970007047028922F070020A430281704700B565
:101980000346FFF7F6FF188940F00700188100BDF5
:1019900070B516460D46602904464FF001023146E7
:1019A0000AD000F068F829462046FFF7E2FF2089B8
:1019B00040F00700208170BDFFF7ABFEF3E730B5C4
:1019C00004894FF6FF7505EA03231343E4B20B4382
:1019D0002343038130BD10B50446FFF7F0FF208993
:1019E00040F07700208110BD10B50446FFF7E7FFF7
:1019F000208940F48040208110BD828822F070024E
:101A0000828082880A4382807047028922F007021E
:101A1000028102890A4302817047028922F0800212
:101A2000028102890A430281704770B50589048BDF
:101A3000068C25F007050D434FF6FC410C4040F2A3
:101A400001110C434FF6FF7101EA031126F0220643
:101A50001143314305810483018470BD00298188CD
:101A600002D041F0800101E021F0800181807047C7
:101A7000A0F85010704770B5048C24F00104048461
:101A8000058B048C4FF6FF7606EA0313134325F00B
:101A9000F3052B4324F00A020A4342F001010383B9
:101AA000018470BDFE4910B588424FF0010101D19B
:101AB0004C0601E04FF080642046FFF7D2F8204644
:101AC000BDE810400021FFF7CCB810B50368002234
:101AD00023F002030360036843F0010303604FF641
:101AE000FF7300E0521C4468E40701D19A42F9D127
:101AF0004268D2073ED08A79012A02683CD022F09F
:101B000080020260CA79012A026838D022F04002BD
:101B100002600A7A012A026834D022F020020260B0
:101B20004A7A012A026830D022F0100202608A7AD2
:101B3000012A02682CD022F008020260CA7A012A27
:101B4000026828D022F0040202608A78CC789207DA
:101B500042EA04620C7942EA04424C79098842EA7A
:101B60000452491E0A43C261016821F0010101606B
:101B7000002114E0002010BD42F08002C1E742F0D5
:101B80004002C5E742F02002C9E742F01002CDE76B
:101B900042F00802D1E742F00402D5E7491C42684E
:101BA000D20701D09942F9D14068C007E2D10120A3
:101BB00010BDF0B5827A01219140BA4A136843F012
:101BC00001031360B74B1C331C688C431C60B54D7C
:101BD000067BB54C0C35A6B92E688E432E60468820
:101BE000C78846EA0746877A04EBC707C7F8406606
:101BF0000688878846EA0746877A04EBC707C7F84E
:101C00004466067B012E12D12E680E432E60867A22
:101C1000056804EBC6064FEA3545C6F84056867A95
:101C2000456804EBC6044FEA3545C4F844569D4C5C
:101C3000C57A241D002D256806D00D432560994CDA
:101C40000589143415B104E08D43F7E725688D4309
:101C500025600589012D02D125680D432560407B53
:101C6000012802D1186808431860106820F00100AC
:101C70001060F0BD00218171C171017241728172E9
:101C8000C1728170C1700321017102214171012172
:101C90000180704783490A6842F001020A600A68BD
:101CA00043F60E739A430A600A6842EA002008600D
:101CB000086820F00100086070470029016802D020
:101CC00041F4803101E021F4803101607047002946
:101CD000016813D041F080010160D0F8841141F413
:101CE0008071C0F88411D0F8941141F48071C0F86B
:101CF0009411D0F8A41141F4807112E021F0800118
:101D00000160D0F8841121F48071C0F88411D0F8FA
:101D1000941121F48071C0F89411D0F8A41121F429
:101D20008071C0F8A411704730B502460020936856
:101D30005B0108D49068000101D5012003E09068A0
:101D4000C00037D5022002EB0012D2F8803103F038
:101D50000103C2F880310B7A73B3D2F880414D6829
:101D60001C434B7A43EAC5031C43C2F880418B7A7B
:101D700003F00F038B72D2F8843123F00F03C2F803
:101D80008431D2F884318C7A2343C2F88431CB7AFF
:101D9000CC6843EA0423C2F88831CB7B096943EA63
:101DA0000121C2F88C11D2F8801141F00101C2F872
:101DB000801130BD042030BDD2F880314C7A2343ED
:101DC0000C8843EA4453C2F88031D0E7002221B1A5
:101DD000012905D0022906D112E08268334801E0CA
:101DE0008268334802403349501A8A4214D00ADCD0
:101DF000A2B16FF0806010180FD002280CD10FE054
:101E000082682D48EEE7B0F5007F09D02B494018D5
:101E100003D0B0F5003F03D0002070470220704788
:101E20000120704741B101290AD0022903D18168FC
:101E300041F4000181607047816841F08001F9E759
:101E4000816841F40041F5E710B500EB0113D3F8C8
:101E5000B04114F004041472D3F8B04145D0E40842
:101E6000C2F80440D3F8B04104F002045472D3F82D
:101E7000B44104F00F049472D3F8B441240AD4742A
:101E8000D3F8B841D472D3F8B841240A1473D3F804
:101E9000B841240C5473D3F8B841240E94730FE066
:101EA0000064004000660040006000400300000441
:101EB0000003000800010008000003100001FFF704
:101EC000D3F8BC41D473D3F8BC41240A1474D3F8BA
:101ED000BC41240C5474D3F8BC311B0E937439B13B
:101EE000016941F02001016110BD640D1460B9E782
:101EF000C16841F02001C16010BD21B1016941F00C
:101F0000200101617047C16841F02001C160704744
:101F10000246002029B1012902D1106900F0030016
:101F20007047D068FAE700234FF6FF7221B101290C
:101F300017D0022924D03AE0016821F0020141F0D3
:101F40000101016000E0521E416801F00301012916
:101F500001D0002AF7D1406800F00300012823D106
:101F600024E0016821F00301016000E0521E416895
:101F7000890701D0002AF9D14068800714D115E003
:101F8000016821F0010141F00201016000E0521EF0
:101F9000416801F00301022901D0002AF7D140680D
:101FA00000F00300022801D0002300E001231846BE
:101FB00070470268002122F0010242F00202026032
:101FC000406800F00300022800D101210846704754
:101FD00003684FF6FF71002223F00203036000E064
:101FE000491E43689B0701D50029F9D14068800745
:101FF00000D40122104670478069C0F3021000012E
:1020000070478069000E70478069C0F307407047D1
:10201000002A426901D00A4300E08A4342617047C6
:102020000246002011F4700F03D0926904E00120F1
:102030007047CB0104D552680A401103F7D17047AD
:102040000B0101D59268F7E78B0101D5D268F3E760
:102050001269F1E7534A914202D100218161704730
:10206000C1F313028B0101D5C26070474B0101D54A
:1020700002617047090101D5826070474260704774
:102080000246002053690B424AD0B1F5807F3BD015
:1020900013DC08292ED007DC012926D0022927D0FD
:1020A00004293DD1D0682BE0102925D0202926D045
:1020B000402935D11069102130E0B1F5004F2BD007
:1020C0000BDCB1F5007F22D0B1F5806F22D0B1F5E5
:1020D000006F25D19069702120E0B1F5803F11D0CB
:1020E000B1F5003F1CD15068E5E790682E4915E036
:1020F000D06802E0D068DEE7106903210EE01069C5
:1021000008210BE05068FBE79069012106E0906927
:10211000022103E0906900E05068042100F03BB820
:10212000704730B5082310240422B1F5007F1DD07C
:1021300010DC202929D007DC012921D0042922D054
:10214000082900D1C46030BD402920D0B1F5807F7E
:10215000F9D10BE00025B1F5004F06D008DCB1F550
:10216000806F03D0B1F5006FEDD18561426030BD65
:10217000B1F5803F0DD0B1F5003FF8D1446030BDDE
:102180000949816030BDC36030BD036130BD046169
:1021900030BD436030BD024600200A4200D001201D
:1021A000704700007000F0300101010008B568467A
:1021B00001F035FB08BD08B5684601F069FB08BDB4
:1021C00008B56A46082105F0E3FA08BD344810B5A1
:1021D0000078012807D101F0B0FA05F036FCBDE81F
:1021E000104001F0B5BA10BD10B504466FF0040000
:1021F000FEF750FA2B4AE0082B4B10702B4C196855
:10220000B4FBF1F1414318684FF47A73B3FBF0F07B
:1022100050804FF0E020026942F002020261416109
:10222000016941F00101016110BDF8B54FF0E026F0
:10223000002477691B49097800FB01F5684601F025
:10224000EEFAB069B1698142FCD002D2A0EB010084
:1022500002E0A7EB0102104404440846AC42F1D36B
:10226000684601F015FBF8BD70B504460C480078CF
:1022700078B10F48007860B90A4D6888844203D36A
:10228000B4FBF0F0FFF79CFF6888B4FBF0F100FBB3
:1022900011444FF47A706043BDE87040C5E7000018
:1022A0005D00002024000020F495000840420F004B
:1022B0005C000020704746490A885206FCD5C2B22D
:1022C0008A807047F0B50646012187B00846FEF7C0
:1022D00078FC01211020FEF79CFC3E4F07220921CB
:1022E0003846FEF7DEFA07220A213846FEF7D9FA09
:1022F0004FF4C060049002208DF814008DF8150092
:1023000000248DF8164001258DF8175004A9384691
:10231000FEF73EFAADF80440ADF80640ADF80840CF
:10232000ADF80C400C202A4CADF80A000096694626
:102330002046FEF762FD01212046FEF7CFFD402139
:102340002046FEF789FE012240F225512046FEF785
:1023500064FE25208DF8180003208DF819008DF8F3
:102360001A008DF81B5006A8FEF753F907B0F0BD10
:1023700070B501F0E2F9164C40F225512046FEF707
:102380006EFEE0B12046FEF7D3FDC2B212480188CE
:102390000B0414D44C044FF0000304D50A2A0DD1C9
:1023A00041F4004111E00D2A0DD0C1F30D040B4D95
:1023B000491C89B22A550180C72900D90380BDE88C
:1023C000704001F0C5B941F480410180F7E7000099
:1023D0000010014000000240280000200C0E0020E8
:1023E0001FB56846FEF758FB019804B010BD10B544
:1023F000FFF7F6FF11490A6842F080720A6010493F
:1024000000224A600A6842F001020A60BDE81040FA
:1024100000F076B80A484068704710B50446FFF7E8
:10242000DFFF0021074A0B4606F097FD02460B46E8
:102430002046002106F091FD10BD0000FCED00E0FB
:10244000001000E040420F0010B500F0DFF8044635
:102450001021694800F0DAF92046BDE8104000F08C
:10246000D9B8664910B500200860FFF7C0FFBDE885
:102470001040E9E7FEE770B505460C000ED075B1D7
:1024800000F0C4F8064610225B49284600F0B6FC6E
:10249000304600F0BFF80020208070BDFEE70A2023
:1024A000088070BD70B50C00054612D095B11021A2
:1024B00000F096FC102810D200F0A8F80646102272
:1024C00029464D4800F09AFC304600F0A3F8002061
:1024D00005E0FEE70A20088070BD4FF47A70208086
:1024E00070BDFFF797BF704720B14449096811B12B
:1024F000002202E0FEE74FF4FA62028008467047CD
:102500003E490860704710B500F08BF8183810BDD0
:1025100010B500F086F8103810BD00F082B8F0B5A4
:102520000C0E0B0C0F0A0025354AD0F1FF368D41F9
:102530001BD24FF6FF75D0F1FF368D410AD26FF0F6
:102540007F45D0F1FF308D4101D2105DF0BDD05CF0
:102550000830F0BDFF23D0F1FF308B4102D2D05DB7
:102560001030F0BD505C1830F0BD4FF6FF74002302
:10257000241A8B4111D26FF07F440023241A8B411F
:1025800005D2000E40EA0120105C2030F0BD000CA6
:1025900040EA0140105C2830F0BD0023D0F1FF0478
:1025A0008B4105D2000A40EA0160105C3030F0BD7A
:1025B000105C3830F0BD08B100F036B80820704724
:1025C00008B100F031B81020704708B100F02CB805
:1025D0002020704700B550EA01020BD0C243521CC4
:1025E000CB4343F1000310401940FFF798FFC0F1BF
:1025F0003F0000BD402000BDD40E00202C00002074
:102600000094000872B6704762B67047EFF310800E
:1026100072B6704780F31088704730BF704720BF94
:102620007047B0FA80F0704790FAA0F0B0FA80F0EE
:10263000704790FAA0F07047A0F14101192902D922
:102640006138192801D80120704700207047A0F197
:102650004101192905D92039192902D93038092809
:1026600001D801207047002070476138192801D82F
:1026700001207047002070474138192801D80120F7
:102680007047002070473038092801D80120704772
:10269000002070473038072801D8012070470020FB
:1026A0007047A0F13001092905D91139052902D94E
:1026B0006138052801D80120704700207047202884
:1026C00003D0092801D0002070470120704720283E
:1026D0000BD00D2809D00A2807D00C2805D00928CE
:1026E00003D00B2801D0002070470120704720380C
:1026F0005E2801D8012070470020704721385D28EE
:1027000001D80120704700207047A0F120015E2908
:1027100016D8202814D00D2812D00A2810D00C2842
:102720000ED009280CD00B280AD021391A2907D33A
:1027300020391A2904D330380A2801D301207047E0
:102740000020704741B2002901DB1F2803D97F28F0
:1027500001D00020704701207047A0F141011929E4
:1027600000D82030C0B27047A0F16101192900D80B
:102770002038C0B2704700B50B46FFF7F5FF0246A0
:102780001846FFF7F1FF824201D1012000BD002071
:1027900000BD0000FD48FE490246C0E900120021CC
:1027A0008160C160016141618161C1610162016358
:1027B000C162416200F148018163C1634FF48061ED
:1027C00001644164F3480260704710B500231C4661
:1027D000641C41EA0323042CFAD310F0030405D14E
:1027E0000BE000BF521E00F8011B641C002A0CD035
:1027F000042CF7D301E008C0121F042AFBD202E028
:1028000000F8011B521E002AFAD110BD0A46002111
:10281000DBE730B4814202D930BC00F0ADBD1044DA
:102820001144401E491E431A042B26D300F0030313
:1028300001F00304A34220D1032B08D10AE000BF1A
:102840005B1E11F8014900F801495BB2521E0AB142
:10285000002BF5DAC01EC91E05E000BF51F804398F
:1028600040F80439121F042AF8D2C01CC91C04E025
:1028700011F8013900F80139521E002AF8D130BC94
:10288000704770B50346CAB17BB371B313441144AA
:10289000012003F0030401F00305AC421FD1DCB1B9
:1028A00013F8015D11F8016DB54200D00020521EF1
:1028B000641E012803D1002AF1D10DE0012070BD72
:1028C00053F8044D51F8045DAC4202D00020121FB1
:1028D0000EE0121F01280BD1042AF1D208E013F8F0
:1028E000014D11F8015DAC4201D0002070BD521EB7
:1028F0000128FBD1002AF2D170BD30B5C36BB3FB08
:10290000F2F402FB14340CB1121B00E00022446C00
:1029100011448C4201D2002030BD5D18611AC5639C
:102920001A444164104630BD10B5B0FBF3F403FB0C
:10293000140000B1181AB2FBF3F403FB14240CB119
:102940001B1B00E0002310441A44491E02FB010037
:1029500010BD2DE9FC5F1F4614008A46834600D156
:1029600001AC0020894E2060FFF750FE00905346D6
:102970005A460121D6F84480F06BFFF7D5FF054693
:1029800042F2E279404506D90098FFF743FEA5EBF5
:102990000800206012E0524659463046FFF7ADFF6E
:1029A0000600009807D0FFF735FE42F2107038801D
:1029B0003046BDE8FC9FFFF72DFE2560A7F800908C
:1029C0000020F6E72DE9F04116460C460546FFF7D4
:1029D0001DFE6B68996B01B96C4BDF6B5D6CFFF78B
:1029E00019FE012C06D9B7FBF4F004FB107000B1FE
:1029F000201A2D1A42F2107030802846BDE8F0816E
:102A00000A4601466148DDE7B8B1634A0260002228
:102A100042608260C260026142618261C2610262A0
:102A2000826242630263C26242628263C263026480
:102A3000426442F210700880704742F21170FAE767
:102A40002DE9FF4F8BB09346DDE91A798A4604469B
:102A500007B90AAF0020386049462046FFF7D4FF87
:102A6000B9F80010A1F51C50103856D1494800683B
:102A700088B10020DFF814810290FFF7C7FD0790AE
:102A8000BAF100000AD000210891424900EB0B0284
:102A9000521E0E6846E042F2E7713CE0CDF820801D
:102AA000D8F83CB0042346461A4658460E99FFF71C
:102AB0003BFF039058440490DDE918230E99FFF77B
:102AC00033FF83460398454658440290D8F8441093
:102AD0000091884262D90798FFF79CFD00990298FF
:102AE000401A3BE0B16B514505D1356C5D4502D1D3
:102AF000350019D01FE0336C0B445B1E8A4213D3A0
:102B0000884203D99A4201D9984209D80798FFF719
:102B100081FD42F27F71A9F800100FB0BDE8F08F7F
:102B20000896F668002EDDD1C4F840B0C4E90EAABC
:102B30002546C4F844B004231A46D8F83C000E9940
:102B4000FFF7F2FED8F8441083460091884209D975
:102B50000798FFF75FFD0099ABEB0100386042F288
:102B6000E27087E0E86B0490DDE918230E99FFF727
:102B7000DBFE696C8346009188420FD90798FFF706
:102B800049FD0099ABEB01004BE007E0E40E0020AB
:102B900048454150300000204E4F4E450E980422CB
:102BA0008000014603904046FFF7A7FE009008B161
:102BB000002019E0D8F844400798FFF72BFDBAF140
:102BC000000F04D00398A042C8D9001BC6E70298A2
:102BD000F9E7DDE918122846FFF78FFE88B1009962
:102BE00041F8280008F101000E9980468842F0D390
:102BF000A5421FD10898C4E902060898A8B1C4608C
:102C000015E0EE6B6C6C0798FFF704FD0E98DDE99C
:102C10001823A0EB08013046FFF786FEA04200D93A
:102C2000001B386042F2D87024E06B4804603EB16B
:102C3000B46005E06869C4E904506C6100B10461E6
:102C40006648C4E900050498A06104985844401EF1
:102C5000E0610098C4F828B0206219986063189861
:102C600020630E98E0620E9860620798FFF7D2FC2E
:102C700042F21070A9F800004FE770B50C46054607
:102C8000FFF7C4FC6D6AFFF7C5FC42F210702080AC
:102C9000284670BD70B515460446FFF7B7FC0146DF
:102CA000606A50B1E26A90420DD90846FFF7B2FC63
:102CB00042F295702880002070BD0846FFF7AAFCFC
:102CC00042F2DE70F6E7401E6062226A52F820404F
:102CD0000846FFF79FFC42F210702880204670BD26
:102CE00070B514460E460546FFF790FCEA6A911B44
:102CF000491E42F295768A4202D96A6A8A4204D90A
:102D0000FFF788FC2680002070BD2A6A52F8215007
:102D1000FFF780FC42F210702080284670BD2DE93C
:102D2000F04115460E460446FFF770FCE26A616A00
:102D30000746914204D3FFF76DFC42F2DD701BE0C1
:102D40000B46206A0AE000BF50F823C0B44504D106
:102D500050F8211040F8231002E05B1C9A42F3D88F
:102D6000D4E9080140F82160606A401C606238467E
:102D7000FFF750FC42F2107028803FE62DE9F04149
:102D800014460F4605464FF0FF36FFF73FFC02465C
:102D9000E96A686A884215D31046FFF73BFC42F2A5
:102DA000DD7016E02B6A53F82030BB4209D10D1AB2
:102DB00010466D1EFFF72EFC42F210702080284650
:102DC0001CE6401C8142EDD81046FFF723FC42F27E
:102DD00088702080304611E630000020504F4F4C64
:102DE000002201E0401C521C18B103780BB18A424A
:102DF000F8D3104670474FF0FF31F1E730B50028A7
:102E000012D091B10346002406E000BF491C03F82C
:102E1000015B641C4BB141B10D780DB19442F5D307
:102E2000944201D20021197030BD002030BD4FF016
:102E3000FF32E3E730B500280BD049B1002A08D0B3
:102E4000034601E05B1C03D01C78002CFAD107E09C
:102E5000002030BD03F8015B491C641C002BF7D037
:102E60000029F5D00D780DB19442F3D300211970EB
:102E700030BD4FF0FF32DDE7F0B51AB328B1F9B13C
:102E80000346401C4C1C002507E0D9B108781EE021
:102E9000401C491C5B1C641C6D1C1E780F78BE42D4
:102EA00004D11EB110B10CB19542F1D3954209D0B5
:102EB000F2B2F9B28A4201D0701AF0BD16B118B15F
:102EC0000078F0BD0020F0BD002CFBD020784042FF
:102ED000F0BD4FF0FF32CFE72DE9F0475FEA020A7D
:102EE0003BD078B189B10646451C88464C1C007819
:102EF000FFF733FC074698F80000FFF72EFC4FF071
:102F0000000914E049B308782CE0007821E000BF04
:102F100008F1010809F1010916F8010F641C6D1C84
:102F2000FFF71BFC074698F80000FFF716FC8742E6
:102F300005D1317819B115B10CB1D145E8D3D145DE
:102F40000BD0874202D0381ABDE8F0872FB135B1D7
:102F50002878BDE8F047FFF700BC0020F4E7002C1C
:102F6000FBD02078FFF7F9FB4042EDE74FF0FF324E
:102F7000B2E710B5002812D081B1002303E0401C55
:102F800003F101030BD004781CB1944201D08B42B1
:102F9000F5D38B4202D2E1B2914200D0002010BDA5
:102FA0000A464FF0FF31E4E730B5154604000FD074
:102FB00071B1491EFFF714FF20180AD000E0401E2F
:102FC000A04202D00178A942F9D10178A94200D0EB
:102FD000002030BD0A464FF0FF31E5E730B500284C
:102FE00003D00BB1044607E0002030BD8D4200D174
:102FF00022705B1E641CF8D02578002DF5D0002BC4
:10300000F4D130BD4FF0FF33E8E72DE9F0410F4632
:10301000060028D03FB332B3501C01D0511C01E050
:103020004FF0FF310C4611463046FFF7D9FE0546FA
:1030300021463846FFF7D4FE040017D0AC4212D820
:10304000701911D038190FD0A5EB04085FF00005F6
:1030500006EB050C224639466046FFF70DFF38B1F6
:103060006D1C4545F4D90020BDE8F0813046FBE7F2
:103070006046F9E74FF0FF32C7E72DE9FF5F824670
:10308000DDF844800E9C16460D465FEA080060D0CD
:103090000027B94605B90127B01E232800D3012710
:1030A000FCB12046FFF723FB012818D1302C18D0A3
:1030B000A4F13000C1B20F98012802D0A4F1410060
:1030C00001E0A4F16100C0B20A2E02D8B14206D3D9
:1030D00007E00A2903D3A6F10A01884201D2012799
:1030E00025E042461FBB5146012003E0B1FBF6F14B
:1030F000401CC0B2B142F9D20399012900D000218D
:103100004318AB42EBD84FF0000BA84200D328463F
:103110003CB1281A401A10F0FF0F04D0302C04D014
:1031200001E00844C5B2002000E00120814610996A
:1031300008EB050009B1002101700021401E04E0E8
:1031400057B13F2200F80129491CA942F8D377B3AF
:10315000002004B0BDE8F09FBAF1000204D119B11B
:10316000039A012A14D023E0B2FBF6F306FB13A264
:10317000D2B20A2A01D2303205E00F9B012B01D0D6
:10318000373200E05732BAFBF6FA00F80129DBE7E4
:1031900059EA0B0205D0B9F1000F09D06A1E91421D
:1031A00006D12D2200F801294FF0010BCCE704E0F5
:1031B000002CC9D000F80149C6E74046C9E77FB5F1
:1031C0000DF1200C9CE870008DE878000023FFF7DB
:1031D00054FF04B070BD2DE9FF411C46DDE90A65CE
:1031E0000C9F002802DA4042012300E00023CDE9D1
:1031F0000046CDE90257FFF740FF04B034E72DE960
:10320000FF5F9846DDF8389015460F00064600D15E
:1032100002AFB9F1000F3E6001D10DF10C090021A0
:1032200089F800101EB1012D01D0242D01D90020F4
:103230008FE73446307801E014F8010FFFF747FAC2
:103240000128F9D020782B2803D02D2805D0002084
:1032500008E04FF00008641C05E0B8F1010F00D150
:10326000641C01208046019425B1082D11D0102D39
:1032700022D112E02078302801D00A251CE014F871
:10328000010F582803D0782801D0082514E0102514
:103290000CE0207830280ED00EE0207830280BD1BA
:1032A00014F8010F582801D0782805D16078FFF76D
:1032B000F8F9012800D1641C00208346CDF80000F5
:1032C00094F800A05046FFF7C2F9012827D15046D4
:1032D000FFF7D9F901280DD05046FFF7C6F90128AC
:1032E0000BD0AAF13700C0B2A84218D2BBF1000F30
:1032F00006D012E0AAF13000F5E7AAF15700F2E794
:103300001C4951F8252000998A4204D301FB05018C
:103310000091814201D24FF0010B641CD0E7BBF158
:10332000010F02D14FF0FF3000900198844201D08C
:103330003C6000E03E6089F80080009809E708B52D
:1033400000230093FFF75BFF08BD1CB501AB0093A2
:103350000123FFF754FF9DF804204FF0004122B1F4
:10336000884200D2414208461CBD8842FCD36FF01F
:1033700000401CBD00950008002800D170470029BE
:1033800000D17047002A00D170472DE9F81F00F0E6
:10339000030301F00304A34211D1C3F1040303F0BA
:1033A0000303012B1DD3012A00D2F2E011F8014BD7
:1033B00000F8014BA3F10103A2F10102F1E700F0D3
:1033C000010301F00104A34200D094E0012B44D397
:1033D00011F8014B00F8014BA3F10103A2F1010226
:1033E000F4E7B2F5B47F26D3B1E8F81FA0E8F81FE0
:1033F000B1E8F81FA0E8F81FB1E8F81FA0E8F81F2F
:10340000B1E8F81FA0E8F81FB1E8F81FA0E8F81F1E
:10341000B1E8F81FA0E8F81FB1E8F81FA0E8F81F0E
:10342000B1E8F81FA0E8F81FB1E8F81FA0E8F81FFE
:10343000A2F5B472D5E7282A06D3B1E8F81FA0E8B0
:10344000F81FA2F12802F6E7042A06D351F8043B3C
:1034500040F8043BA2F10402F6E7202A42D331F8F7
:10346000023B20F8023B31F8023B20F8023B31F8E6
:10347000023B20F8023B31F8023B20F8023B31F8D6
:10348000023B20F8023B31F8023B20F8023B31F8C6
:10349000023B20F8023B31F8023B20F8023B31F8B6
:1034A000023B20F8023B31F8023B20F8023B31F8A6
:1034B000023B20F8023B31F8023B20F8023B31F896
:1034C000023B20F8023B31F8023B20F8023B31F886
:1034D000023B20F8023B31F8023B20F8023BA2F10C
:1034E0002002BAE7022A06D331F8023B20F8023B59
:1034F000A2F10202F6E7102A42D311F8013B00F8CC
:10350000013B11F8013B00F8013B11F8013B00F8C9
:10351000013B11F8013B00F8013B11F8013B00F8B9
:10352000013B11F8013B00F8013B11F8013B00F8A9
:10353000013B11F8013B00F8013B11F8013B00F899
:10354000013B11F8013B00F8013B11F8013B00F889
:10355000013B11F8013B00F8013B11F8013B00F879
:10356000013B11F8013B00F8013B11F8013B00F869
:10357000013B11F8013B00F8013BA2F11002BAE750
:10358000012A06D311F8013B00F8013BA2F1010228
:10359000F6E7BDE8F81F704770470000F74CF84D9C
:1035A000FFF734F82168491C21602968491C29600B
:1035B000FFF730F804F0A6FDF2E700B5EF4A89B056
:1035C000002111600B2205910691CDE90720ED48FD
:1035D000ED4AEE4B006812681B680292CDE90301C8
:1035E0003F20CDE900030023AFF24F02E8A1ED48F0
:1035F00003F06CF809B000BD0020EB4B014600BFA2
:1036000000EB400203EB8202401C11811160C0B24A
:1036100051604028F4D3704710B5044604F078FD9B
:10362000E24800210A220170E1480170E14801707E
:10363000E1480160E1480160E1480170E148017042
:10364000E1480170E1480160E1480160E148016042
:10365000E1480170E1480068B0FBF2F0E04A106018
:10366000E04A106830B1E048006818B1126802C042
:10367000521EFCD1DD480160DD480160DD4801607B
:10368000DD480160DD480160DD480160DD48016022
:10369000DD48017001F042FFFFF7AEFF204601F068
:1036A00095F82088002847D1204601F0DFFA2088CD
:1036B000002841D1204601F003FB208800283BD19F
:1036C000204601F013FF2088002835D1204602F063
:1036D0004EFA208800282FD1204602F0FFFC2088D7
:1036E000002829D1204603F07DFE2088002823D120
:1036F000204601F065F9208800281DD12046FFF7FB
:103700005CFF2088002817D1204603F06EFF208838
:10371000002811D1204602F072FE208800280BD12B
:10372000204604F05CFC2088002805D100F0A8FCAD
:10373000BDE81040FFF730BF10BD9D48007801285C
:1037400005D19A490878FA2801D2401C08707047C0
:10375000974810B5007801282BD1FEF757FF044693
:103760009248017801B3491E11F0FF0101701BD18D
:1037700090480078C0B901F0DBFE924908708A4990
:1037800000EB400051F820108C4801608A48006826
:10379000814209D051F8900F401C08609B48016895
:1037A000491C016005F09CFC2046BDE81040FEF776
:1037B00031BF10BD7D4810B50078002824D17D4868
:1037C0000078002820D1FEF721FF044601F0B0FE6A
:1037D0007C490870744900EB400051F8200077499B
:1037E000086075490968884209D050F8901F491C43
:1037F000016086480168491C016005F06CFC2046A8
:10380000BDE81040FEF706BF10BD6A4810B500784D
:10381000012803D1FEF7FEFD6C49086010BD70B5AC
:1038200004466248007810B146F6625019E06048DC
:103830000078012802D045F6896012E05D4D2878B5
:10384000FA2802D345F209200BE0FEF7DFFE064618
:103850002878401C2870FFF7D8FF3046FEF7DAFEC4
:103860000020208070BD534810B5007800280ED18C
:10387000FEF7D0FD55490968401A55490A68824249
:1038800000D2086053490A68824200D2086010BD25
:1038900070B504464548007810B146F6655023E0FF
:1038A00043480078012802D045F689601CE0414D6C
:1038B000287870B1FEF7AAFE06462878401E10F060
:1038C000FF00287008D03046FEF7A4FE46F663508D
:1038D0000AE046F6645007E0FFF7C5FF3046FEF702
:1038E00099FEFFF767FF0020208070BD2DE9F041B1
:1038F00015460C460746FEF789FE37490026012F7C
:1039000001D00E7001E001220A7035490CB10C6043
:1039100005E0324A0A231268B2FBF3F20A60FEF7AE
:1039200079FE2E80BDE8F08110B50289002A14D0FE
:10393000012A12D00021022A07D0D0E90024D3683E
:103940001961C2E90314E26005E0D0E90023C2E98D
:103950000313C3E90321C0E9003210BD70B504466A
:103960001248007810B148F2D1407AE0114800784E
:1039700010B146F6635074E04AE0000058000020A1
:10398000BC000020A8950008A4950008A095000898
:1039900075432F4F532D4949492049646C65205484
:1039A00061736B00BC270020502900205C000020C0
:1039B0005D000020A4000020FC0000200001002089
:1039C0008A0000208B0000208C000020980000203E
:1039D0009C000020A0000020AC000020F49500080E
:1039E000A8000020CC950008C89500083C000020E5
:1039F0004000002044000020480000204C0000202F
:103A00005000002054000020DA000020D0000020E8
:103A1000F7480078012802D046F67B1021E0FEF737
:103A2000F5FD0646F348F449007800EB400001EB51
:103A300080052889022805D23046FEF7EBFD46F6C0
:103A40007A100EE02846FFF76FFF2868416D09B92C
:103A5000EA49096881653046FEF7DCFDFFF7AAFEFA
:103A60000020208070BD70B5E54D0446287818B15F
:103A700045F68A60208070BD01F05AFDE14908706A
:103A8000DC490870DC4900EB400051F82000DE49B9
:103A90000860DE4908600120287005F00BFB43F642
:103AA0009920E7E70021018047F25C60704738B158
:103AB0004268C1F8C02081688968096AC16170479D
:103AC00091F83400022803D0072803D0D0A002E0E8
:103AD000D0A000E0D1A0C1F8C000704730B58A681E
:103AE000002392F8374002891AB1521C0281026801
:103AF0000BE0012202814B600B60016014E09568CD
:103B000095F83750A54203D85268002AF7D107E04C
:103B100032B1146854B1C1E900426160116030BD36
:103B20004B6042680A605160416030BD1160C1E97C
:103B30000032016030BD10B5C28700242346016306
:103B40000EE04B6041F8103B641C41F8103BA4B2FE
:103B500041F80C3C21F8083C41F8043C41F8180CB1
:103B60009442EED310BD70B5054690F83700A249D7
:103B700000EB400001EB8001D5E90302002442B1D3
:103B80000B895B1E0B81D06090B102612C61EC60EF
:103B900070BD28B10A89521E0A8104610860F5E7E8
:103BA0000C810C604C6095F8370001F0DFFCEDE70C
:103BB0004A60EBE738B50446022531B16B46022274
:103BC00003F04CFDBDF8000028B184F836502046C3
:103BD000FFF7C9FF38BD032084F83600F7E72DE969
:103BE000F0418A4D07460C4628680026194680F8A1
:103BF000342080F83560FFF7DDFF64B1FC6004F12C
:103C00000806012239462868FFF795FF39463046F5
:103C1000FFF764FF02E02868C6870663204629682C
:103C2000BDE8F04143E710B502890023012A0BD01B
:103C30000A6862B14C6874B1546022600289521EF5
:103C400002814B600B6010BD03604360F6E74A6879
:103C500013600260F2E753604260EFE770B506461A
:103C6000C48F056B07E0E86829460830FFF7DBFFE3
:103C7000641EA4B22035002CF5D10020F0873063FB
:103C800070BD10B50B6BC98F08E0DC68844202D1AF
:103C9000DA61186110BD491E89B220330029F4D1C0
:103CA00010BD90F83710544A01EB410102EB81013D
:103CB00000220B8943B15B1C0B810B68C0E9033206
:103CC0000A6810610860704701230B81C2600261BD
:103CD00008604860704790F83710474A01EB41018F
:103CE00002EB810100220B893BB15B1C0B81C2609E
:103CF0004A680261D0604860704701230B81C2604E
:103D000002610860F7E710B5044690F8370001F04B
:103D10001FFC384994F8370009788842204602D1C0
:103D2000BDE81040D7E7BDE81040BAE710B504463B
:103D300003F082FB94F83600400703D42046BDE828
:103D40001040E0E710BD2DE9F041074691F836003C
:103D500000250C4616464FF00108082835D2DFE84A
:103D600000F03434040434341A1A94F8340003286C
:103D700003D121463846FFF784FFE565A4F860507B
:103D8000266417B12046FFF769FF2046FFF7CEFFF4
:103D900084F8365015E094F83400032803D1214606
:103DA0003846FFF76EFFE565A4F86050266417B14A
:103DB0002046FFF753FF204603F03EFB042084F823
:103DC000360084F8358084F83450ABE516A2C1F88B
:103DD000C020816811B18968096A00E012A1C1613F
:103DE000704770B580F83710C58F046B2EE0000067
:103DF000AC0000208A00002050290020A8000020EC
:103E00005D0000208B00002000010020FC0000204D
:103E1000200000005461736B205100005461736BEB
:103E20002053656D0000000020000000E668308A25
:103E30000836012807D921463046FFF7F4FE21460F
:103E40003046FFF74BFE6D1EADB22034002DEDD194
:103E500070BD002101604160018170470289521CE0
:103E6000028102684A6000220A60026802B11160A1
:103E700001600289012A00D14160704710B50B6BC7
:103E8000C98F08E0DC68844202D1DA61186110BD94
:103E9000491E89B220330029F4D110BD2DE9F0412B
:103EA0000C4691F83610002502261746082933D211
:103EB000DFE801F0323204043232191994F8341078
:103EC000032903D13A462146FFF7D8FFE565A4F858
:103ED000605020462764FFF7C1FE2046FFF726FF0B
:103EE00084F8365014E094F83410032903D13A468C
:103EF0002146FFF7C3FFE565A4F86050204627641C
:103F000003F09AFA2046FFF7A9FE042084F8360051
:103F100084F8356084F8345004E570B50C6B049D6A
:103F2000C98F0AE0E668864204D1C4E9040223830B
:103F3000E56170BD491E89B220340029F2D170BDFF
:103F4000F8B50C46064691F8361000250698082963
:103F50003BD2DFE801F03A3A04043A3A202094F8E0
:103F60003410032911D0E265A4F86030206436B122
:103F70002046FFF773FE21463046FFF727FF204615
:103F8000FFF7D4FE84F836501BE0009021463046FF
:103F9000FFF7C3FFEBE794F83410032916D0E2656E
:103FA000A4F860302064204603F046FA36B120467B
:103FB000FFF754FE21463046FFF708FF042084F83F
:103FC000360084F8355084F83450F8BD009021460E
:103FD0003046FFF7A2FFE6E710B5FEF717FB2049D2
:103FE00004460020087020481E49016051F8900FD7
:103FF000401C08601D480168491C016005F06BF811
:104000002046BDE81040FEF705BB70B504461848D1
:104010000078012822D1FEF7F9FA2168054641B15E
:104020001448814218D08A6D3AB1521E8A6513D164
:1040300003E0BDE87040FEF7EDBA208902280BD3FB
:104040000D48007840B92046FFF76EFC2068416DAE
:1040500009B90A49096881652846EAE770BD000088
:104060008B0000208028002000010020D0000020CC
:10407000AC000020BC270020A4000020A8000020E5
:10408000704700000022FF4BFDA14261C161196829
:1040900019B181614861186070478261FBE72DE9C1
:1040A000F0410446F84890460F4600781D4610B18E
:1040B00042F6E16025E014B3FEF7A8FAF34E31783A
:1040C000491C3170FEF7A6FAF148C4E90007002741
:1040D000C4E9088704F10800FFF7BBFE2046FFF79C
:1040E000D1FFEC490888401C0880FEF78FFA317830
:1040F000491E3170FEF78EFA2F80BDE8F08145F63B
:10410000C3501880F9E7E44902C0E4A102C00021CD
:104110008161FFF79EBED0E9052100232AB151B18C
:1041200091614A61836143617047D64A116001B170
:104130004B61836170479361F5E72DE9F05F0746B6
:10414000D14815468946007810B143F2C92010E0E5
:1041500037B1080007D0012905D045F6256008E0F1
:1041600045F6C35005E0CA493868884205D045F68F
:10417000C45010800020BDE8F09FFEF747FAC34C02
:104180002178491C2170FEF745FA3E8A5FEA090052
:10419000DFF800B3DFF80C9307F10808B2460AD045
:1041A000012842D0FEF732FA2178491E11F0FF01B2
:1041B00021705FD066E0BAF1000F08D0FEF726FA52
:1041C0002178491E11F0FF0121701FD026E03846EA
:1041D000FFF7A1FFBBF800103846491EABF80010EE
:1041E000FFF791FFFEF712FA2178491E11F0FF0147
:1041F000217007D1B9F8001021B1FEF70BFAFFF7D3
:10420000EBFE01E0FEF706FA00200BE0B9F8001023
:1042100021B1FEF7FFF9FFF7DFFE01E0FEF7FAF943
:1042200047F25F1028805046A5E7FEF7F3F8814675
:1042300009E000BFD8F800004A4681683846FFF719
:104240002DFE761EB6B2002EF4D13846FFF763FF7E
:10425000BBF800103846491EABF80010FFF753FFBB
:10426000FEF7D4F92178491E2170FEF7D3F9FFF744
:10427000A1FAC9E7B9F8001021B1FEF7CBF9FFF7B1
:10428000ABFE01E0FEF7C6F945F62560CAE730B49B
:10429000854C029D246844F8802F002223816260AF
:1042A0002B4630BC0122FFF79ABC2DE9FF4F054693
:1042B0008BB07548DDE9186400781F46894610B157
:1042C00046F2AE1010E1ADB148F20101781A8F420A
:1042D00029D019DC40F20111A7F201108F4222D03F
:1042E0000BDC012F1FD0022F1DD0042F1BD0082F55
:1042F00016D118E045F6C350F6E0012813D0032884
:1043000011D007280CD10EE0B0F5807F0BD0F4DD82
:10431000A0F58070013806D0022804D0062802D00B
:1043200045F62560E0E05A492868884202D045F603
:10433000C450D9E0F80501D5012000E000208046F6
:104340004FF0000B0EB1C6F800B007F00F02099253
:10435000FEF75CF9099A4D494FF0010E012A35D05C
:10436000022A39D0042A02D0082A72D121E02A6A0E
:1043700002EA090ACA4522D00EE04B4A1268C2F886
:1043800084A00EB1696A3160FEF744F9A4F800B068
:1043900050460FB0BDE8F08F3A042AD5FEF73AF93F
:1043A00046F2B010A0E000BFFEF734F946F66350C5
:1043B0009AE02A6A02EA09035FEA030AECD0B8F13C
:1043C000000FDAD022EA0A022A62D6E72B6A29EA2B
:1043D000030ACA4506D0DFE72B6A29EA03025FEA2F
:1043E000020AD9D0B8F1000FC7D043EA0A032B6202
:1043F000C3E70A78002AD7D18A4681F800E0FEF7A1
:1044000009F90D9800903B464A46294601A8FFF756
:104410003EFFFEF7FBF89AF80010491E8AF80010DC
:10442000FEF7F8F8FFF7C6F9FEF7F0F81E49024666
:10443000086890F835307BB1012B3BD0022B4BD074
:10444000032B40D01046FEF7E5F846F62E604BE011
:10445000FFE7FEF7DFF863E70EB1006C3060A4F809
:1044600000B008685F46B8F1000FD0F8846044D00F
:10447000099801283ED002283CD0042837D015E006
:1044800020000000740000205C000020A400002038
:10449000464C4147780000204E4F4E453F464C4128
:1044A0004700000068000020FC00002008281ED003
:1044B0001046CEE70EB1006C30601046FEF7AAF849
:1044C00046F2A91010E00EB1C6F800B01046FEF793
:1044D000A1F847F2D92007E00EB1006C3060104619
:1044E000FEF798F845F6C2502080002051E7286A70
:1044F000B04301E0286A304328621046FEF78AF88C
:104500002780304645E72DE9F05F0446B34815465D
:104510008846007810B146F2AA1011E074B1080084
:104520004FF4807A0ED050450CD0B0F5004F09D032
:10453000B1F5014F06D045F6256001E045F6C350C0
:10454000108022E0A6492068884202D045F6C45077
:10455000F6E7FEF75BF80146208A04F1080770B120
:10456000DFF88092084699F80020521C89F8002054
:10457000FEF750F80026FDF74DFF834611E0084690
:10458000FEF748F846F2AB1028800020F3E53868C3
:104590005A4681682046FFF7D6FB761CB6B2D04556
:1045A00002D138890028F2D1FEF730F899F80020BE
:1045B000521E89F80020FEF72DF85FEA084001D46A
:1045C000FFF7F8F8002028803046D4E570B504469F
:1045D0008248007820B146F2AE102080002070BDE5
:1045E000FEF714F880490968D1F88450FEF712F8F4
:1045F00000202080284670BD70B50025C0F88410CA
:1046000080F8355080F834500446026490F8360043
:1046100008280ED2DFE800F00D0D04040D0D0A0A83
:104620002046FFF783FB84F8365002E0042084F82C
:1046300036002046BDE87040FFF710BB2DE9F0477B
:104640009A4690460D460446089FFDF7DFFF5FEA55
:10465000080120D0012907D0B1F5004F1BD06FF41D
:10466000004218EB020F11D1216AA943C4E9081ACC
:10467000218A04F108064FF0000979B1594D2978D3
:10468000491C2970FDF7C6FF36683FE0FDF7C2FF01
:1046900045F625605EE0216A2943E7E7FDF7BAFFAA
:1046A000A7F80090206ABDE8F08790F88810766837
:1046B00001F00F01012918D002291ED004290AD0C7
:1046C00008290DD0FDF7A2FF2978491E11F0FF013E
:1046D000297033D03AE0216AD0F88020114009E0F7
:1046E000216AD0F8802011400BE0D0F88010236AB6
:1046F0000A4699438A4205D007E0D0F88010226A22
:10470000914311B15246FFF777FF16B1B068002808
:10471000CBD1FDF77BFF2978491E2970FDF77AFF81
:104720005FEA084001D4FFF745F8FDF76FFF246A00
:10473000FDF770FFA7F800902046B4E72B490988E1
:1047400021B1FDF767FFFFF747FC01E0FDF762FFCE
:1047500043F6FF2038800020A5E72DE9FF411646EB
:10476000884605001C460DD07EB1012E0DD0B6F551
:10477000004F0AD06FF40040C64206D045F62560CF
:10478000188019E045F6C350FAE7154F2868B8427B
:1047900002D045F6C450F3E7FDF73CFE03460F4850
:1047A000007860B1CDE90234CDE9008600231A46D5
:1047B0002946384600F020F8002004B09DE4324637
:1047C000414628460094FFF739FFF6E7084A0021E2
:1047D0001160084A11800180704700005C000020D1
:1047E000464C4147A4000020FC0000206800002047
:1047F00074000020780000202DE9F05F1E46DDE9FE
:104800000AAB90460F4681460D9CFDF7FFFE05461C
:104810009C489D4A0188128891422BD2491C89B23A
:1048200001809A4802888A4200D20180984908682B
:10483000C0F80090C0E902780682C0F814A0A0F881
:1048400018B00C9AC2614068086092480121018149
:10485000914901604160002000F07AFE8F480078A5
:1048600008B18F490870002020802846BDE8F05F1D
:10487000FDF7D0BE8B490888401C088044F2536085
:10488000F2E73EB5884C894B02A920680268D51A28
:104890009A4245D015DC864BD2182DD0854BD218C4
:1048A00022D0854BD21832D0844BDA4208D1C2696B
:1048B000CDE90021038B028AC168806802F0A0F96B
:1048C0003EBD7F4AAA181ED07E4BD21824D07E4B04
:1048D000DA42F5D1C269CDE90021038B028AC168B1
:1048E000806801F09FF83EBD0091028BC369416969
:1048F0008068FFF7A3FE3EBD018BC269806802ABF2
:1049000001F01EFB3EBD806802F063FA3EBD018BE4
:10491000C269806802AB21E0806802F0D4FC3EBD31
:104920005F485C49007800EB400001EB8000FFF736
:104930006CFB206802AB0021C269644802F0ADFB49
:1049400063480168491E0160E9D162490968016054
:10495000FDF760FD024602AB00215F4802F09DFBBF
:104960003EBD5E4D474C504EFDF750FE0746208839
:10497000C8B13846FDF74EFEFDF74CFD0746FFF780
:1049800080FFFDF747FD2968C01B814200D22860E7
:10499000FDF73CFE3168496831602188491E21805D
:1049A000FDF738FEE0E73B490020088108604860D9
:1049B00000F0DCFD3846FDF72DFEFEF7FBFED2E7EA
:1049C000F0B53849464D89B000220A80296831B1D6
:1049D0002D4E3188022905D244F2546135E044F26B
:1049E000526132E03D4900233E4F0A60296801F1DF
:1049F000200410E041F8087B5B1C41F8082B9BB2B7
:104A000041F8042C21F8102B41F80C2C21F8082C2B
:104A100041F81C4C2034B6F800C06345EAD32B683B
:104A200041F81C3C1A490B601F490B6015490A806C
:104A300016490A802C490B6853B12C4B2C4D1C682D
:104A40002D68AC4207D244F25661018009B0F0BD36
:104A500044F25561F9E7032405920692CDE9074037
:104A60001868244B09681B68CDE903020092CDE960
:104A700001130023AFF215121FA1074801F026FE13
:104A8000E4E7000068000020989500086A00002014
:104A90006000002050290020802800208A0000208B
:104AA0008C0000206C000020640000205449434B1F
:104AB000ADBAB2BE0DF90BFAF2F8F7FF0006F6FF39
:104AC00000F7FDF700FFEFFF03FE0FFE142D00209F
:104AD000F8000020F4000020D82D002070000020F5
:104AE000B09500084E4F4E45B8950008C095000897
:104AF000F0950008BC95000875432F4F532D494988
:104B00004920495352205175657565205461736B76
:104B100000000000594B00228261196819B1C1617F
:104B2000886118607047C261FBE72DE9F05F0546B8
:104B30005348DDE90A8600781F4614468B4610B1BB
:104B400045F2B9600EE045F2BB605CB1022F01D2C4
:104B5000401C07E045F2C161B8F1040F08D314F01E
:104B6000030F02D03080BDE8F09F18F0030F01D092
:104B70003180F8E77A1E93B22146002206E000BF9A
:104B800001EB08000860521C014692B29A42F7D32A
:104B90004FF0000AC1F800A0FDF738FDDFF8E490FF
:104BA00099F80010491C89F80010FDF733FD3648CC
:104BB00085E81108EC60AF826F82A5F81080284666
:104BC000FFF7A8FF31490888401C0880FDF71EFD4B
:104BD00099F80010491E89F80010FDF71BFDA6F892
:104BE00000A0C0E770B504000D4610D0FDF70EFD23
:104BF0000146A08A78B1E668401E3268E260A08271
:104C00000846FDF707FD00202880304670BD45F2BC
:104C1000BF60088005E00846FDF7FCFC45F2C26075
:104C20002880002070BD70B50E46040015460BD0DC
:104C30006EB1FDF7EBFCA18A628A91420BD3FDF7BE
:104C4000E9FC45F2BA600FE045F2BF6001E045F2D1
:104C5000BE60108070BDE1683160E660A18A491CC9
:104C6000A182FDF7D7FC0020288070BD034A0021F7
:104C70001160064A11800180704700007C0000200E
:104C80005C000020A40000204D454D208000002045
:104C900010B5491E8CB2002200F11003114608E045
:104CA000E0E80231521C20F8081B92B240F8041CC4
:104CB0001033A242F4D3016041600181C16010BD94
:104CC00070B5524E0446306880B1514D288880B18D
:104CD00081B23068FFF7DCFF4E48316801602988F7
:104CE00081800021C1800181218070BD45F21E704C
:104CF00001E045F21D70208070BD10B5428992B16F
:104D0000444903680C681C6043680B60CB88448985
:104D10001B1BCB808B88448923448B8000214181DD
:104D2000818101604160104610BD018100214181F7
:104D30008181016041607047F0B544890025CCB1A4
:104D40004468278966680F800AB1E16811602168AC
:104D50004160B9B14189491E41812E4801682160F5
:104D600004608188491C8180C188491EC1801D80E2
:104D70003046F0BD0D8002B1156046F292501880A9
:104D80000020F0BD05604581E7E7F0B54489DDE925
:104D900005E70589AC4202D346F293501EE01D4D53
:104DA000AE88CEB12C68761ED4F800C0C5F800C01D
:104DB000AE80EE88761CB6B2EE80B5F808C0B44579
:104DC00000D22E814689002556B1DB060CD403683B
:104DD0001C60256004600AE045F21D703880F0BD5B
:104DE00004600123446004E0436823604460438915
:104DF0005B1C438186899BB29E4200D283816160A5
:104E00002281C4F80CE03D80F0BD0000D895000878
:104E10009A950008442900200022FF4BFDA1426121
:104E2000C161196819B18161486118607047826178
:104E3000FBE72DE9F0410446F8480F461546007897
:104E400010B142F6E1602AE03CB3FDF7DFFBF44E1F
:104E50003178491C3170FDF7DDFBF248C4E90007E9
:104E60000027276284F825704020A76284F8240078
:104E700004F10800FEF7EDFF2046FFF7CDFFEA49F9
:104E80000888401C0880FDF7C1FB3178491E31704D
:104E9000FDF7C0FB2F80BDE8F08145F6C3501080C0
:104EA000F9E7E24902C0E2A102C000218161417735
:104EB000016240210177FEF7CCBFD0E90521002334
:104EC0002AB151B191614A61836143617047D24A0D
:104ED000116001B14B61836170479361F5E72DE982
:104EE000F05F0546CD480E461446007810B143F2F7
:104EF000C92008E02DB146B1012E06D045F6256047
:104F000001E045F6C3501080A4E0C64928688842F5
:104F100002D045F6C450F6E7FDF778FBDFF80083D2
:104F200098F80020521C88F80020FDF773FB2F8AA8
:104F3000DFF804A305F10809BB4666B1012E48D08D
:104F4000FDF764FB98F80020521E12F0FF0288F86B
:104F5000002079D0A9E0BBF1000F0AD0FDF756FB85
:104F600098F80020521E12F0FF0288F8002020D08E
:104F700027E02846FFF7A1FFAB480188491E0180C2
:104F80002846FFF78EFFFDF741FB98F80020521EE0
:104F900012F0FF0288F8002007D1BAF8001021B102
:104FA000FDF738FBFFF718F801E0FDF733FB0020B1
:104FB0000BE0BAF8001021B1FDF72CFBFFF70CF85D
:104FC00001E0FDF727FB47F25F1020805846BDE85F
:104FD000F09F2E6A16B396F8370095F82410884291
:104FE0001CD096F8360008281CD2DFE800F0041127
:104FF0001414111114143046FEF7B5FD95F8240071
:1050000086F8370000F0A4FA3046FEF764FE05E0AB
:1050100086F8371002E03046FEF7E3FEFDF7FAF9B6
:10502000064622E0FDF7F2FA98F80020521E12F030
:10503000FF0288F8002008D1BAF8001029B1FDF766
:10504000E9FAFEF7C9FF02E027E0FDF7E3FA46F6CA
:105050002D6020800020BAE7D9F800003246816830
:105060002846FEF71BFF7F1EBFB2002FF4D1284653
:10507000FFF723FF6C480188491E01802846FFF78F
:1050800010FFFDF7C3FA98F80020521E88F80020A0
:10509000FDF7C0FAFEF78EFB89E7BAF8001021B1E0
:1050A000FDF7B8FAFEF798FF01E0FDF7B3FA45F611
:1050B00025608AE72DE9F04F0646584889B01C461E
:1050C0000078129D17468B4610B146F2AE10D1E023
:1050D00036B147B1B7F5004F05D045F62560C9E0B8
:1050E00045F6C350C6E04F493068884202D045F6C5
:1050F000C450BFE04FF000080CB1C4F80080FDF7C9
:1051000085FA034696F825004C4A012188B192465B
:10511000D6F820C0126894451ED1401C86F82500A0
:105120000CB1B06A20601846FDF774FA45F282703F
:10513000A0E01068306290F8370086F8240086F806
:1051400025100CB1B06A20601846FDF763FAA5F887
:10515000008009B0BDE8F08F380405D51846FDF78A
:1051600059FA46F2B01085E02D4802782AB1184667
:10517000FDF750FA46F663507CE081460170184610
:10518000FDF748FA376ADAF8000097F8372090F808
:1051900037108A421ED997F83600082853D2DFE824
:1051A00000F004131616131316163846FEF7DBFC30
:1051B000DAF8000090F8370087F8370000F0C8F9F7
:1051C0003846FEF76EFD05E087F8371002E03846F6
:1051D000FEF707FE5B46042231466846FEF7FFFCF9
:1051E000FDF714FA99F80020521E89F80020FDF707
:1051F00011FAFEF7DFFAFDF709FADAF8001091F874
:10520000352092B3012A3DD0022A4AD0032A3FD04A
:1052100016E0000020000000840000205C00002058
:10522000A40000204D555458880000204E4F4E4594
:105230003F4D55544558000068000020FC000020F8
:1052400046F62E6129E0FDF7E1F999F80020521E9B
:1052500012F0FF0289F8002008D1A849098829B175
:10526000FDF7D8F9FEF7B8FE02E005E0FDF7D2F948
:1052700046F62D6028806CE70CB1096C2160A5F81A
:1052800000800BE00CB1096C216046F2A91104E02A
:105290000CB1C4F8008047F2D9212980FDF7BAF992
:1052A00057E70CB1096C216045F6C251F5E72DE9CD
:1052B000F05F0446924815468846007810B146F2E1
:1052C000AA1011E074B108004FF4807A0ED0504556
:1052D0000CD0B0F5004F09D0B1F5014F06D045F61E
:1052E000256001E045F6C350108022E08549206822
:1052F000884202D045F6C450F6E7FDF787F901462B
:10530000208A04F1080770B1DFF8FC91084699F88B
:105310000020521C89F80020FDF77CF90026FDF7DB
:1053200079F8834611E00846FDF774F946F2AB10B0
:10533000288000204BE638685A4681682046FEF7F0
:1053400002FD761CB6B2D04502D138890028F2D1D0
:10535000FDF75CF999F80020521E89F80020FDF74E
:1053600059F95FEA084001D4FEF724FA00202880AA
:1053700030462CE62DE9F84F0446614815468A462A
:10538000007810B146F20E2011E03CB1080008D0C0
:10539000B1F5004F05D045F6256008E045F6C3504D
:1053A00005E058492068884204D045F6C450108072
:1053B000BDE8F88FFDF72AF9DFF850910146226A1F
:1053C000D9F80000824205D00846FDF723F945F2DE
:1053D00081706EE0DFF83081084698F80020521C9A
:1053E00088F80020FDF716F9FDF714F80646A062CC
:1053F00094F82500DFF804B1401E10F0FF0084F897
:10540000250016D0FDF702F998F80020521E12F080
:10541000FF0288F8002007D1BBF8001021B1FDF78A
:10542000F9F8FEF7D9FD01E0FDF7F4F845F28370D5
:105430003FE0208A04F10807E8B3D9F8001094F897
:10544000243091F837209A4214D00846FEF78BFB9F
:10545000D9F8001094F8240081F8370000F078F8AB
:10546000D9F80000FEF737FCD9F80000284990F879
:1054700037000870386800231A468168216291F865
:10548000370084F82400012084F825002046009687
:10549000FEF756FDFDF7BAF898F80020521E88F87E
:1054A0000020FDF7B7F85FEA0A4001D4FEF782F961
:1054B000002028807CE7FFE70026266284F825602C
:1054C000FDF7A4F898F80020521E12F0FF0288F8A9
:1054D000002007D1BBF8001021B1FDF79BF8FEF7C3
:1054E0007BFD01E0FDF796F82E8061E7094A002177
:1054F0001160094A11800180704700006800002097
:105500005C0000204D555458A4000020FC000020F1
:105510008A000020840000208800002000201A4912
:10552000024600BF41F82020401C0228FAD37047F1
:1055300010B50024144802E02034E4B2001D0168D4
:105540000029F9D00846FDF76CF82044C0B210BD20
:1055500000F01F0241090120C2F11F0290400A4AD7
:1055600052F82130034342F82130704700F01F0207
:1055700041090120C2F11F029040034A52F8213034
:10558000834342F821307047340000200022F84B5A
:10559000F6A14261C161196819B181614861186061
:1055A00070478261FBE72DE9F0410446F148174658
:1055B000884600781D4610B142F6E1602CE034B315
:1055C00047B3FDF723F8EC4E3178491C3170FDF7F5
:1055D00021F8EA48C4E90008394604F12000FFF741
:1055E000A4FB04F10800FEF734FC2046FFF7CEFFD1
:1055F000E3490888401C0880FDF708F83178491E07
:105600003170FDF707F800202880BDE8F08145F6ED
:10561000C35001E046F294501880F6E770B5044696
:1056200020300546FFF769FBD6482060D6A06060B1
:1056300000212846FFF779FB04F10800BDE870401F
:10564000FEF707BCD0E9052100232AB151B19161D1
:105650004A61836143617047C54A116001B14B6182
:10566000836170479361F5E72DE9F05F0646C14815
:1056700014468946007810B143F2C9200BE046B1C8
:10568000080045F6256B0AD0012908D0A2F800B021
:1056900002E045F6C35010800020BDE8F09FB749F6
:1056A0003068884202D045F6C450F4E7FCF7AEFFFC
:1056B0008246358A5FEA0900DFF8C49206F10807DE
:1056C000A84608D001281FD05046FCF7A3FFA4F835
:1056D00000B04046E1E7B8F1000F06D05046FCF7B5
:1056E00099FF47F25F102080F3E73046FFF7AAFFEB
:1056F000B9F800103046491EA9F80010FFF78EFFD8
:105700005046FCF787FF2DE0DFF86CB250469BF85F
:105710000010491C8BF80010FCF77CFFFCF77AFEA8
:10572000824607E03868524681683046FEF7B6FB8D
:105730006D1EADB2002DF5D13046FFF783FFB9F8ED
:1057400000103046491EA9F80010FFF767FFFCF76C
:105750005DFF9BF80020521E8BF80020FCF75AFFDB
:10576000FEF728F80020BEE770B5064681480C46D3
:10577000007810B14FF46C500BE046B17F493068AF
:10578000884208D045F6C4502080002070BD45F600
:10579000C3500880F9E7FCF739FF774D2978491C99
:1057A0002970FCF737FF06F12000FFF7A6FA06463E
:1057B000FCF72CFF2978491E11F0FF01297007D151
:1057C0007249098821B1FCF725FFFEF705FC01E0CD
:1057D000FCF720FF00202080304670BD2DE9F04FFF
:1057E000074689B06348DDE9125400781E469146A9
:1057F0008B4610B146F2AE1040E047B156B11000F2
:105800000BD0B2F5004F08D045F6256036E045F6DE
:10581000C35033E046F2D52030E05849386888421A
:1058200002D045F6C45029E04FF000080DB1C5F88C
:105830000080FCF7EBFE009023462A46314607F134
:105840002000FFF779FA8246208840B15FEA0940DC
:105850000CD50098FCF7DEFE46F2B0100EE0009882
:10586000FCF7D8FE504609B0BDE8F08F42480178F9
:1058700039B10098FCF7CEFE46F663502080002038
:10588000F1E78146012089F800000098FCF7C2FE8C
:105890005B460522394601A8FEF7A1F9FCF7B6FEE2
:1058A00099F80010491E89F80010FCF7B3FEFDF7C7
:1058B00081FFFCF7ABFE02463548016891F83530B0
:1058C00063B1012B15D0022B2AD0032B4FF0000718
:1058D00019D0A6F8008046F62E601BE0CF6DB1F817
:1058E0006010318015B10068006C2860A4F8008059
:1058F00011E00027A6F8008015B10068006C286050
:1059000046F2A91006E04046A6F8008005B12860DE
:1059100047F2D92020801046FCF77CFE3846A2E7EB
:105920000027A6F8008015B10068006C286045F6D5
:10593000C250EFE72DE9F05F04460E481546884651
:10594000007810B146F2AA1026E074B108004FF4B6
:10595000807A23D0504521D0B0F5004F1ED0B1F54C
:10596000014F1BD045F6256016E013E02000000033
:10597000900000205C000020A400002051554555F7
:10598000940000204E4F4E453F510000680000201B
:10599000FC00002045F6C350108022E077492068C3
:1059A000884202D045F6C450F6E7FCF72FFE0146C8
:1059B000208A04F1080770B1DFF8C491084699F80D
:1059C0000020521C89F80020FCF724FE0026FCF77A
:1059D00021FD834611E00846FCF71CFE46F2AB10A1
:1059E0002880002059E638685A4681682046FEF72C
:1059F000AAF9761CB6B2D04502D138890028F2D176
:105A0000FCF704FE99F80020521E89F80020FCF7EC
:105A100001FE5FEA084001D4FDF7CCFE002028809B
:105A200030463AE62DE9FF4F83B01F46DDE9109A74
:105A300093460646FCF7EAFD514C2178491C21703B
:105A4000FCF7E8FD358A06F108001DB1B90525D53A
:105A5000006831E0F80601D4002300E01023CDE90E
:105A6000009A5A4606F120000499FFF78EF9FCF7D8
:105A7000CDFD2178491E11F0FF01217009D1414966
:105A8000098831B1FCF7C6FD07B0BDE8F04FFEF75D
:105A9000A3BA07B0BDE8F04FFCF7BCBD0068012514
:105AA0005B46D0E90181CDF800903046049AFEF7BC
:105AB00047FA6D1E4046ADB2002DF1D1FCF7A6FDB0
:105AC0002178491E2170FCF7A5FD380401D4FDF7AB
:105AD00071FE0021AAF8001007B0C5E62DE9FF47C6
